:10000000981E002095270000E36000008127000073
:1000100081270000812700008127000000000000E8
:100020000000000000000000000000007128000037
:100030008127000000000000312A00008127000015
:100040009D2A00009D2A00009D2A00009D2A000094
:100050009D2A00009D2A00009D2A00009D2A000084
:100060009D2A00009D2A00009D2A00009D2A000074
:100070009D2A00009D2A00009D2A00009D2A000064
:100080009D2A00009D2A00009D2A00009D2A000054
:100090009D2A00009D2A00009D2A00009D2A000044
:1000A0009D2A00009D2A00009D2A00009D2A000034
:1000B0009D2A00009D2A00009D2A00009D2A000024
:1000C0009D2A00009D2A00009D2A00009D2A000014
:0C00D0009D2A00009D2A00009D2A0000CF
:1000E0004FEA4102B2F1E04324BFB3F5001CDCF15A
:1000F000FE5C0DD901F0004C4FEAC0024CEA507092
:10010000B2F1004F40EB830008BF20F001007047C0
:1001100011F0804F21D113F13872BCBF01F00040C3
:10012000704741F480114FEA5252C2F11802C2F1F5
:10013000200C10FA0CF320FA02F018BF40F0010076
:100140004FEAC1234FEAD32303FA0CFC40EA0C0028
:1001500023FA02F34FEA4303CCE77FEA625307D165
:1001600050EA01331EBF4FF0FE4040F4400070479C
:1001700001F0004040F0FE4040F40000704700BF36
:1001800080F0004002E000BF81F0004142001FBF4C
:100190005FEA410392EA030F7FEA226C7FEA236C55
:1001A0006AD04FEA1262D2EB1363C1BFD21841404A
:1001B00048404140B8BF5B42192B88BF704710F0E0
:1001C000004F40F4000020F07F4018BF404211F083
:1001D000004F41F4000121F07F4118BF494292EAEB
:1001E000030F3FD0A2F1010241FA03FC10EB0C0017
:1001F000C3F1200301FA03F100F0004302D54942A4
:1002000060EB4000B0F5000F13D3B0F1807F06D350
:1002100040084FEA310102F10102FE2A51D2B1F148
:10022000004F40EBC25008BF20F0010040EA03003D
:100230007047490040EB0000013A28BFB0F5000FBD
:10024000EDD2B0FA80FCACF1080CB2EB0C0200FA73
:100250000CF0AABF00EBC25052421843BCBFD040C2
:100260001843704792F0000F81F4000106BF80F43C
:1002700000000132013BB5E74FEA41037FEA226CFF
:1002800018BF7FEA236C21D092EA030F04D092F0CA
:10029000000F08BF0846704790EA010F1CBF0020FE
:1002A000704712F07F4F04D1400028BF40F000405B
:1002B000704712F100723CBF00F50000704700F07B
:1002C000004343F0FE4040F4000070477FEA2262A2
:1002D00016BF08467FEA23630146420206BF5FEA73
:1002E000412390EA010F40F4800070474FF0000373
:1002F00004E000BF10F0004348BF40425FEA000C3A
:1003000008BF704743F0964301464FF000001CE0E1
:1003100050EA010208BF70474FF000030AE000BF37
:1003200050EA010208BF704711F0004302D5404275
:1003300061EB41015FEA010C02BF844601460020E7
:1003400043F0B64308BFA3F18053A3F50003BCFA02
:100350008CF2083AA3EBC25310DB01FA02FC6344AF
:1003600000FA02FCC2F12002BCF1004F20FA02F2B6
:1003700043EB020008BF20F00100704702F12002A9
:1003800001FA02FCC2F1200250EA4C0021FA02F20A
:1003900043EB020008BF20EADC7070474FF0FF0C0F
:1003A0001CEAD0521EBF1CEAD15392EA0C0F93EA0A
:1003B0000C0F6FD01A4480EA010C400218BF5FEAAC
:1003C00041211ED04FF0006343EA501043EA51111F
:1003D000A0FB01310CF00040B1F5000F3EBF490019
:1003E00041EAD3715B0040EA010062F17F02FD2A1D
:1003F0001DD8B3F1004F40EBC25008BF20F0010000
:10040000704790F0000F0CF0004C08BF49024CEA16
:10041000502040EA51207F3AC2BFD2F1FF0340EAA8
:10042000C250704740F400004FF00003013A5DDC19
:1004300012F1190FDCBF00F000407047C2F100025A
:10044000410021FA02F1C2F1200200FA02FC5FEA47
:10045000310040F1000053EA4C0308BF20EADC7091
:10046000704792F0000F00F0004C02BF400010F403
:10047000000F013AF9D040EA0C0093F0000F01F0B0
:10048000004C02BF490011F4000F013BF9D041EAD2
:100490000C018FE70CEAD15392EA0C0F18BF93EAD4
:1004A0000C0F0AD030F0004C18BF31F0004CD8D1FE
:1004B00080EA010000F00040704790F0000F17BF85
:1004C00090F0004F084691F0000F91F0004F14D0CB
:1004D00092EA0C0F01D142020FD193EA0C0F03D123
:1004E0004B0218BF084608D180EA010000F0004026
:1004F00040F0FE4040F40000704740F0FE4040F401
:10050000400070474FF0FF0C1CEAD0521EBF1CEA9F
:10051000D15392EA0C0F93EA0C0F69D0A2EB0302BD
:1005200080EA010C49024FEA402037D04FF0805357
:1005300043EA111143EA10130CF000408B4238BF1C
:100540005B0042F17D024FF4000C8B4224BF5B1A2A
:1005500040EA0C00B3EB510F24BFA3EB510340EA78
:100560005C00B3EB910F24BFA3EB910340EA9C0026
:10057000B3EBD10F24BFA3EBD10340EADC001B0196
:1005800018BF5FEA1C1CE0D1FD2A3FF650AF8B423A
:1005900040EBC25008BF20F0010070470CF0004C47
:1005A0004CEA50207F32C2BFD2F1FF0340EAC25072
:1005B000704740F400004FF00003013A37E792F033
:1005C000000F00F0004C02BF400010F4000F013A91
:1005D000F9D040EA0C0093F0000F01F0004C02BF8C
:1005E000490011F4000F013BF9D041EA0C0195E7F5
:1005F0000CEAD15392EA0C0F08D142027FF47DAF8E
:1006000093EA0C0F7FF470AF084676E793EA0C0F7D
:1006100004D14B023FF44CAF08466EE730F0004C7B
:1006200018BF31F0004CCAD130F000427FF45CAF0B
:1006300031F000437FF43CAF5FE700BF4FF0FF3C79
:1006400006E000BF4FF0010C02E000BF4FF0010CCC
:100650004DF804CD4FEA40024FEA41037FEA226C95
:1006600018BF7FEA236C11D001B052EA530C18BFB7
:1006700090EA010F58BFB2EB030088BFC81738BF1C
:100680006FEAE17018BF40F0010070477FEA226C0A
:1006900002D15FEA402C05D17FEA236CE4D15FEA06
:1006A000412CE1D05DF8040B704700BF844608463A
:1006B0006146FFE70FB5FFF7C9FF002848BF10F1FB
:1006C000000F0FBD4DF808EDFFF7F4FF0CBF012040
:1006D00000205DF808FB00BF4DF808EDFFF7EAFFCA
:1006E00034BF012000205DF808FB00BF4DF808ED85
:1006F000FFF7E0FF94BF012000205DF808FB00BF7A
:100700004DF808EDFFF7D2FF94BF012000205DF8FF
:1007100008FB00BF4DF808EDFFF7C8FF34BF01200C
:1007200000205DF808FB00BF4FEA4002B2F1FE4F27
:100730000FD34FF09E03B3EB12620DD94FEA0023A3
:1007400043F0004310F0004F23FA02F018BF40427C
:1007500070474FF00000704712F1610F01D1420263
:1007600005D110F0004008BF6FF0004070474FF017
:100770000000704753B94AB9002908BF00281CBFC0
:100780004FF0FF314FF0FF3000F00CB8ADF1080C26
:100790006DE904CE00F008F8DDF804E0DDE902239D
:1007A00004B07047704700BF2DE9F0478C468E4675
:1007B000089E154604461946002B40F0D08072452D
:1007C00047D9B2FA82F74FB1C7F120030EFA07FCFE
:1007D00020FA03F3BD4043EA0C0CBC404FEA154E2F
:1007E000A8B2BCFBFEF8230C0EFB18CC08FB00F9EA
:1007F00043EA0C43994528D9EB1808F1FF3204D29B
:10080000994502D9A8F102022B44A3EB0903A4B233
:10081000B3FBFEFC0EFB1C330CFB00F044EA03446C
:10082000A04214D92C190CF1FF3304D2A04202D9F2
:10083000ACF102032C44241A43EA02401EB1FC40EE
:10084000002334607360BDE8F0874246DDE763460D
:10085000F1E7002A79D0B2FA82F3002B3FD0194693
:10086000C1F1200302FA01F52EFA03F20EFA01FE9D
:1008700020FA03F343EA0E034FEA154E00FA01F49F
:10088000B2FBFEFCAFB20EFB1C201A0C0CFB07F8EF
:1008900042EA004290455AD9AA180CF1FF3004D21E
:1008A000904502D9ACF102002A44A2EB08029BB2A7
:1008B000B2FBFEFC0EFB1C220CFB07F743EA0243D3
:1008C0009F4246D9EB180CF1FF3204D29F4202D965
:1008D000ACF102022B44DB1B42EA004202E0AEEB29
:1008E000020301224FEA154EAFB2B3FBFEFC200C0F
:1008F0000EFB1C330CFB07F840EA034398452AD94A
:10090000EB180CF1FF3004D2984502D9ACF102008B
:100910002B44A3EB0803A4B2B3FBFEFC0EFB1C3379
:100920000CFB07F744EA0344A74216D92C190CF133
:10093000FF3304D2A74202D9ACF102032C44E41BDA
:1009400043EA00400F46114678E71F2188E76046DA
:10095000ABE76246BFE76046DBE76346EFE7734518
:1009600006D916B9002108466DE7C6E9000EF9E779
:10097000B3FA83F787B9734501D3824207D8841A43
:100980006EEB030301209C461EB900215BE738464D
:10099000FAE7C6E9004CF8E7C7F1200CBB4022FAA1
:1009A0000CF51D4320FA0CF12EFA0CF30EFA07FE9B
:1009B00041EA0E014FEA154900FA07F4B3FBF9F8D2
:1009C0001FFA85FE09FB18300B0C08FB0EFA43EAF0
:1009D00000439A4502FA07F240D9EB1808F1FF30BC
:1009E00004D29A4502D9A8F102002B44A3EB0A03D2
:1009F00089B2B3FBF9F809FB183308FB0EFE41EA94
:100A000003418E452CD9691808F1FF3304D28E4575
:100A100002D9A8F10203294443EA0040A0FB02984E
:100A2000A1EB0E014145CE46434602D306D14C45CB
:100A300004D2B9EB020E68EB05030138002EA4D0F6
:100A4000B4EB0E0261EB030101FA0CFC22FA07F38E
:100A50004CEA0303F940C6E9003196E74046C5E792
:100A60004346D9E70000000030F000422DE9F84F7E
:100A70000146034604D1BDE8F84F012004F0D6BE7C
:100A8000002803DABDE8F84F04F0D8BEB0F1FF4FFC
:100A900003DBFFF77BFBBDE8F88FB0F5000F35DA1D
:100AA0004FF09841FFF77AFC6FF018020346C3F34A
:100AB0001604DE15764B234403F400007F3E80F0DD
:100AC0007E5016444FF07E51204306EBD356FFF77D
:100AD0005BFB704B04F10F0213400546002B3ED127
:100AE0000021FFF7EFFD98B1002E00F0C8803046DE
:100AF000FFF700FC68490546FFF750FC67490446CC
:100B00002846FFF74BFC01462046C2E70022CEE70D
:100B10005DA1D1E90001FFF7E3FA2946FFF73EFCAA
:100B200001464FF07C50FFF72FFB2946044628462C
:100B3000FFF734FC01462046FFF730FC04460EB9AF
:100B400021466FE03046FFF7D5FB53490746FFF7D4
:100B500025FC524906463846FFF720FC72E04FF06C
:100B60008041FFF713FB01462846FFF7CBFC814687
:100B70003046FFF7BFFB494680464846FFF70EFC6C
:100B800001468246FFF70AFC4549DFF818B10746DF
:100B9000FFF704FC4449FFF7F9FA3946FFF7FEFB7B
:100BA0004249FFF7F3FA3946FFF7F8FB4049FFF7F0
:100BB000EDFA5146FFF7F2FB3E4982463846FFF711
:100BC000EDFB3D49FFF7E2FA3946FFF7E7FB3B490A
:100BD000FFF7DCFA3946FFF7E1FB01465046FFF725
:100BE000D5FAC4F55713A34403F5227343EA0B0364
:100BF000002B074630DD4FF07C512846FFF7CEFB37
:100C00002946FFF7CBFB014604463846FFF7BEFAFC
:100C10004946FFF7C3FB074646B901462046FFF7A2
:100C2000B3FA01462846FFF7AFFA34E71A494046BF
:100C3000FFF7B4FB194906464046FFF7AFFB3946BC
:100C4000FFF7A4FA01462046FFF79EFA2946FFF770
:100C50009BFA01463046E6E701462846FFF794FA3C
:100C60004946FFF79BFB0446002E3FF469AF0A4953
:100C70004046FFF793FB0949064640466CE70020D3
:100C800009E700BFAFF30080555555555555D53F81
:100C900020FB4A00F0FF7F008071313FD1F717370A
:100CA0009788173E305CCFFF25333A3E2549923E68
:100CB000ABAA2A3F4FD01C3E298E633ECDCCCC3E02
:100CC000F0B403460A461979DB88006813430A4AE0
:100CD0000669876834689A4308BF83F44023012576
:100CE0008D4023F48012DB074CBF2C43AC433460AF
:100CF0003B68F0BC184700BF01001000014B012207
:100D00001A7070474B05002038B52E4C2378002B05
:100D100050D12D4806F005FC10B96FF0120038BD17
:100D20002A482A4D06F0FDFB0028F6D0284606F09A
:100D3000F8FB0028F1D0284606F0F3FB0028ECD0A1
:100D4000284606F0EEFB0028E7D021484FF4B0110A
:100D5000FFF7B6FF0028E2D11E491F48FFF7B0FF9A
:100D60000028DCD11D484FF48031FFF7A9FF00288F
:100D7000D5D11B484FF4B011FFF7A2FF0028CED108
:100D8000184A194B53604FF400239360AB68DB693A
:100D900093B114490122284698470028BFD101F099
:100DA00095FE01F0A7FE01F0B5FE104B186030B1C2
:100DB000012323700020B2E76FF05700AFE76FF018
:100DC0000400ACE74A05002048790000F4780000F0
:100DD000787B000020000100707B0000687B000031
:100DE000607B000064030020FD0C00006003002015
:100DF000084B421E9A4209D20749084A084B8842CA
:100E000098BF1346074A0020136070476FF0150023
:100E1000704700BF00127A0080841E00447B0000EF
:100E2000287B00000000002030B58DB00025109C0C
:100E3000CDE9085104ADCDE90401CDE90624CDE9A1
:100E40000A340095AAB1002C14BF02250125019592
:100E500008AD029502250395B0B1A9B15AB19BB96D
:100E60000B4A11680B48826814686A46A0470DB0A7
:100E700030BD0125EBE7064A1168002BF2D00CB912
:100E80002346EFE702ABEDE76FF01500EFE700BF99
:100E9000000000204879000002461121014804F0BA
:100EA000D6BC00BFF478000008B508490848FFF731
:100EB00007FF022004F0DBFC05484FF48031FFF708
:100EC000FFFEBDE80840322004F0D1BC06001A0045
:100ED000687B00000C4B002210B41A700B4882682B
:100EE0000369946974B11B6813F4002FA44618BFFA
:100EF0004FF0007310BC08BF4FF080634FF0A0723A
:100F00001321604710BC70474B050020F4780000A7
:100F100013B509480469836801A95B68984720B93B
:100F2000236801985840C0F3C0400028D4BF002077
:100F3000012002B010BD00BFF478000002488368B1
:100F40004FF480515B691847F478000002460C2189
:100F5000014804F07CBC00BFF478000013B5002306
:100F600001930F4C204606F0DCFA50B1A36804222E
:100F70001B680DEB02012046984710B9019802B09A
:100F800010BD04F098FC044605F0C1FC444004F098
:100F9000C8FC604080EA104302485840EFE700BFB9
:100FA00010790000B979379E2DE9F3410546BDF867
:100FB00020800E4617461C460120FFF76DFFCDF836
:100FC000008023463A4631462846FFF72DFF48B1B8
:100FD000074A13680133136024B1424600212046BA
:100FE00006F0DAFB002002B0BDE8F041FFF754BF85
:100FF0007003002010B504460020FFF74DFF08489D
:101000006043FFF7F5FE40B9064B1C7004F045FD48
:10101000054BC31A5842584110BD0020FCE700BFE1
:1010200040420F00780100203001CADE08B50820D8
:10103000FFF7E0FF30B90220FFF7DCFF20B9034BD8
:10104000187008BD0820FCE70220FAE778010020AC
:10105000F0B587B0FFF758FE044620B16FF00105E8
:10106000284607B0F0BDFFF717FF2046FFF76EFFD9
:101070004848FFF7BDFE05460028EFD1464B022742
:101080001F70FFF711FF04F008FD444B98427DD11B
:1010900001267623ADF814302A460DF10B033946AC
:1010A00005A800968DF80B50FFF77EFF9DF80B20EA
:1010B0003B4C22F0030232432946362004F0A4FCC4
:1010C00014222946204606F067FBFF231E202374C6
:1010D00004F0C6FC00F01F03000A607304202373B1
:1010E00004F0BEFCA060062004F0BAFC20600720DB
:1010F00004F0B6FC6060082004F0B2FCA073092084
:1011000004F0AEFC274BE0735B79A674A3B1237A9D
:101110002BB13A4612212D2004F076FC6674267B12
:10112000002E08BF102606F01F0242F060020E21BA
:101130002B2004F069FC267440F20133ADF80C302A
:1011400003AA02230021362004F041FC4FF400439F
:1011500004AAADF81030062102232D2004F037FC3C
:10116000052004F097FB4FF40073ADF8143005AA86
:1011700002230021362004F02AFC0422002124202E
:1011800004F042FC022004F085FB69E74FF0FF35D4
:1011900066E700BF80841E00780100203001CADEAF
:1011A0000400002018000020084A1379022B0AD0FE
:1011B000032B06D0012B0CBF4FF048304FF01E30F0
:1011C0007047906870470248704700BF18000020C1
:1011D0004828080E034B04481B79022B08BF4FF424
:1011E000905070471800002000120400014B18882E
:1011F000704700BF1800002013B50A4B01A95C8896
:101200001B88ADF804300222182004F0C5FB02232D
:1012100001AA41F604012E20ADF8044004F0D7FBEA
:1012200002B010BD1800002013B5FFF7D3FF042251
:101230004FF49053000CADF800308DF802000023FD
:10124000104669468DF8033004F0A6FB48F670039B
:10125000ADF800306A4602230421232004F0B7FBD6
:101260005E4B00936A4604230C21232004F0AFFB5D
:101270003523ADF800306A4602231221232004F002
:10128000A6FB0123ADF80030022319466A46272049
:1012900004F09DFB8723ADF800306A460223042149
:1012A000272004F094FB202402236A4606212720ED
:1012B000ADF8004004F08BFB494B00936A460423D1
:1012C0000821272004F083FBF9232146ADF80030E4
:1012D0006A460223272004F07AFB282402236A4668
:1012E00026212720ADF8004004F071FBD8220B2105
:1012F000204604F089FB3B4B00936A4604230C21F3
:10130000204604F064FBC0220B212A2004F07CFB61
:10131000354B00936A46042307212B2004F057FB2A
:10132000BE220B212B2004F06FFB304B5B792BB1DD
:101330006D2240F606012E2004F066FB41F20763A1
:10134000ADF800306A46022341F606012E2004F073
:101350003EFB274B0093042269461F2004F01CFB30
:10136000FFF74AFF44F28E236A46ADF8003042F69A
:10137000040102232E2004F02AFBFFF715FF694623
:10138000009004221E2004F007FB0023042269467B
:101390001A20009304F000FB052004F07BFA04F00F
:1013A0007DFA044604F07AFA031B632B03D94FF04D
:1013B000FF3002B010BD0F2004F0E4FA830703D41D
:1013C000012004F067FAEDE70A4B00930E20042297
:1013D000694604F0E1FA0020EBE700BF07A9022507
:1013E00052001A33E03F1E001D04000818000020C0
:1013F0005500042180D037242DE9F04107880446A8
:10140000002F3AD04088FEF771FF8046A088FEF793
:101410006DFF0646E088FEF769FF414605464046F7
:10142000FEF7BCFF314604463046FEF7B7FF0146E3
:101430002046FEF7ABFE294604462846FEF7AEFFDF
:1014400001462046FEF7A2FE00210446FFF74EF9B2
:1014500098B93846FEF74AFF0146FEF79FFF01465E
:101460002046FFF74FF804F091F90549FEF796FF83
:101470000449FEF789FEBDE8F0810348FBE700BFA1
:10148000000020413D8AE3420000F0C238B5034627
:101490000088E8B15C89DCB1FEF728FF05462046EC
:1014A000FEF724FF4FF09041FEF778FF29460446EF
:1014B0002846FEF773FF01462046FFF723F804F0A5
:1014C00065F90449FEF76AFF0349FEF75DFE38BD82
:1014D0000248FCE7000020413D8AE3420000F0C2E0
:1014E00007B5074B186800901B798DF804306946E2
:1014F00005220F2004F050FA03B05DF804FB00BF92
:10150000467C000007B5074B186800901B798DF8E2
:101510000430694605220F2004F03EFA03B05DF85E
:1015200004FB00BF107B000030B585B004F0B5FAB5
:10153000444C454D041B4FF0040018BF012404F037
:1015400021FA0246FFF746FE82424FF01F0018BF05
:1015500044F0020404F016FA3C4B022298424FF089
:1015600020014FF0270018BF44F0040404F057FA9C
:101570000422F9284FF008014FF0270018BF44F06B
:10158000080404F04CFA324B98424FF01E0018BF8A
:1015900044F0100404F0F6F90146FFF705FE0222BC
:1015A000814202A94FF0180018BF44F0200404F053
:1015B000DCF92B88BDF808209A4248F26E43ADF85A
:1015C0000C304FF030038DF80E304FF002030093D3
:1015D0004FF0000202AB4FF0030103A818BF44F024
:1015E0004004FFF7E1FCBDF808306A889A426B7945
:1015F00018BF44F08004CBB1012240F606012E2032
:1016000004F00DFA134D2B7C6D2818BF44F4807440
:10161000FF2B0BD001220E212B2004F000FA2B7C93
:1016200000F01F00984218BF44F400740E2004F02C
:10163000A9F9094B984218BF44F48064204605B0CC
:1016400030BD00BF3001CADE180000205500042163
:1016500052001A330400002080D03724044B19684C
:10166000002903DB03488368DB681847704700BF25
:10167000240000202C7900002DE9FF4104F023F91B
:1016800010F00C0F2C4C2D4A2D4B05D121689142A6
:1016900002D1A168994201D000216160A360A388B2
:1016A00022604FF6FF729342264D1CBF0133A38088
:1016B000286004F036F9A3882B81E388AB81686049
:1016C000FFF74CFC002468812C7404F0E7F81E4BF3
:1016D00018601E4B18601E4B0FCB8DE80F001D4E7F
:1016E000304605F01EFF014628B96FF01200A973BD
:1016F00004B0BDE8F081D6F80880174FD8F808305C
:101700006946304698470028386001DA0021EEE744
:101710000321D8F800303046984710F1860F04D1E5
:10172000D8F800302146304698470028EED1396875
:10173000C943C90FDBE700BF981E00204842575538
:10174000B7BDA8AA800300207C03002078030020F6
:10175000007B00002C7900002400002008B504F074
:101760009DF8014B186008BD7C03002010B504F003
:1017700095F80B4B1B68C31AB3F5FA7F044601D2E8
:10178000FFF76CFF0749CB8843B1074AD37B2BB9DE
:101790004EF66020844284BFCB80938110BD00BF91
:1017A0007C030020981E0020800300202DE9F047D4
:1017B000274CDFF8A08021740746032640F2E73962
:1017C000FFF74CFF5FB1B847054640B96369E07366
:1017D00001336361FFF7C2FF2846BDE8F087A369C4
:1017E00038F8025B0133A361D5B9013EFFF736FF3C
:1017F00016F0FF06E4D1184DEB88022B03D8013315
:10180000EB8004F0AEF80123E373EB88A38104F0CE
:1018100045F8124B6FF004051860FFF79FFFDBE7F8
:10182000642DAA4628BF4FF0640AFFF717FF4FF454
:10183000004C484600214FF47A720023EAFB0C0169
:10184000FEF798FF05F00EFFA5EB0A05CCE700BFF9
:1018500080030020407C0000981E002074030020BC
:1018600010B504F01BF80446FFF778FF064BD87B51
:1018700048B1064A136842F20F71E31A8B4286BFE1
:1018800014600120002010BD80030020740300209C
:1018900008B504F003F8054A1368C31AB3F57A7F54
:1018A0002ABF10600020012008BD00BF780300207F
:1018B000044BDA6958620132DA6110B11A6A0132F6
:1018C0001A6270478003002010B501460748FFF7F1
:1018D0006DFF044640B9FFF739FB204603F0F2FFE5
:1018E00000F0EEF8012010BD0020FCE7991A00007E
:1018F0002DE9F74FFFF708FA044668B103F0DFFF60
:1019000038B103F0DEFF002141F2343005F0AAFEC9
:10191000F4E7FFF713FBF6E7FFF718FB204603F0A9
:10192000D1FF04F084F9FFF7A7FE00F09FF828B973
:1019300004F07BF904F07BFA012407E00120FFF7B3
:10194000C3FF044604F071F9002CF3D1DFF8F880EE
:10195000D8F8009000F0CCF8019003F09FFF3B4BCB
:10196000D3F81CA00646834603F098FF054604F012
:101970005FF918B1364B4FF001021A70002C3ED0BF
:10198000002003F09FFF00F0B9F8D8F800304B4575
:101990001FD00220FFF798FF0446D8F8009000F00F
:1019A000A7F8019B984204D000F0A2F80190FFF73D
:1019B000D5FE44B1254BDF69BA453CD00120FFF785
:1019C000C5FAAB46BA46FFF7D1FE0A2005F08DFDF9
:1019D000CAE700F07BF80028E1D000F07DF8FFF7BF
:1019E00057FF0028DBD0FFF79FFD0746FFF760FF9A
:1019F000384600F077F8002FCFD00320CAE703F075
:101A00005EFF88B12046FFF7A1FA012003F05AFFDC
:101A1000FFF726FF04460028D5D00120FFF754FF2A
:101A2000D8F800900446C4E7AB1B952BF0D9FFF71C
:101A300085FA2E46ECE7A5EB0B05B5F57A7FC1D309
:101A40000020FFF783FABDE770030020B4030020F5
:101A50004B05002008B5034B187003F01FFF024B25
:101A6000186008BD500500201C04002010B504F0CB
:101A7000A8F9044648B901462822054805F08CFE1D
:101A800004483822214605F087FE204610BD00BFDD
:101A9000F4030020B403002010B504F092F9064BC3
:101AA00000221A70054B01221A70044608B904F08E
:101AB000BEF9204610BD00BF4B0500204C0500209C
:101AC000014B01221A7070474C050020014B187819
:101AD000704700BF4D050020014B00221A7070476F
:101AE0004D050020014B1860704700BFEC0300203B
:101AF000014B1868704700BFF00300202DE9F0414A
:101B0000B8B003F0CBFEAF4BAF4C1A78002A31D1FE
:101B1000AE4B1B68C01A2378032B00F25A82DFE811
:101B200003F002191119C82840F25382A84A536BD6
:101B300001335363A74A136801331360A64B012294
:101B40001A7012E0052840F24482A14A93690133D9
:101B50009361F3E70A2840F23C82A04A136A0133FA
:101B600013629B4A13690133136138B0BDE8F04139
:101B700004F051B900221A70964A136801331360B9
:101B800004F034F82378032B00F21281DFE813F01D
:101B90000400E90104001702914B034009D100F44D
:101BA000C842A2F5C8421A4311D000F400501843AD
:101BB0001FD0874D6B6A01336B6204F001F804F0AB
:101BC00008F8AB6A0133AB6204F01EF913E0402160
:101BD00018A803F0A0FF06AB074601464DF6CA62FF
:101BE00018A804F027F8B8B9794AD36A0133D36248
:101BF000EAE7FFF787FC2378022B40F0EA8103F045
:101C00004DFE724B1B68C01A052840F2E281704AF3
:101C1000936901339361A8E79DF82030212B40F0B0
:101C2000FD80BDF81E20002A40F0F88003AA394646
:101C300018A804F09AF80028D6D0BDF81C30042B60
:101C4000C2D16848624E03F081FF674BBDF81E2089
:101C50001A80664B9DF80C201A70654B9DF80D108C
:101C6000197033685F480133012A336082BF73689B
:101C70000133736004F0A1F810F1966541F100079B
:101C80008046FFF7B3FA6FF30805431907F0FF0723
:101C9000584847F1000202F0FF02C0E900329DF807
:101CA0000C0001284FF0000CA3EB080140F28380E8
:101CB0009DF80E2012F001022BD040F60143CDE931
:101CC0000D3CCDF83CC04C4BDFF830C14C4ACDE95F
:101CD00010C301238DF8483013888DF849301B0A52
:101CE0008DF84A3053888DF84B301B0A8DF84C30F4
:101CF00013798DF84D30434B1B89ADF84E30424B74
:101D000014934EF60663ADF85430336A01333362F0
:101D100022229DF80D308DF825303C4B0A911B781E
:101D20003B498DF82400003B096818BF01235B0084
:101D300009B143F004038DF82C300DAB0C93354BF7
:101D40008DF82D2019784A1C1A7009AB01930423D1
:101D50004DF6CA62009328A8BDF81E3003F088FF34
:101D600000238DF810302B0A8DF811302B0C2D0E1E
:101D700080468DF812308DF813508DF81470FFF7EF
:101D8000AFFB04A803F0B5FE414628A803F096FE79
:101D900008F1020080B203F096FE012003F032FF4A
:101DA00058B11D4A136801331360F3680133F360BF
:101DB00004F031F81FE76246ABE70120FFF74AFE67
:101DC00019E700BF4B050020500500201C0400202F
:101DD000B4030020F00300204D050020F403002090
:101DE00000903724FC0300204805002079010020E2
:101DF0004E050020880100208881D2080000020CD6
:101E00001800002080030020030442FD4C05002040
:101E1000EC0300204F050020B003002022786E4D17
:101E2000022A19D1232B17D1BDF81C30042B13D152
:101E30006A4EBDF81E2033889A420DD104AA394655
:101E400018A803F0A8FF38B1DFF894819DF810209E
:101E500098F80030934203D0EB6A0133EB62B3E6AB
:101E6000012B604F08D99DF811203B789A4203D08E
:101E70002B6B01332B63A7E66B6909A801336B61F8
:101E800003F064FE09A803F098FF0246564803F0E9
:101E900094FF98F8003039788DF83430121A0E9289
:101EA000012B4FF080228DF835100F9232D928A8DF
:101EB00003F056FE28A8FFF79FFA4C49FEF76EFA8A
:101EC0004FF047410546FEF725FC00283FD0484922
:101ED0002846FEF71FFC00283BD12846FEF724FCCD
:101EE00000B2ADF83C0028A8FFF7D0FA3F49FEF752
:101EF00055FA4FF047410546FEF70CFC60B33C49EC
:101F00002846FEF707FC48BB2846FEF70DFC00B24A
:101F1000ADF83E00374B19784A1C1A700DAB01938F
:101F20000423009333884DF6CA6228A803F0E2FE2A
:101F30000546FFF7D5FA294628A803F0BFFDA81CDF
:101F400080B203F0C0FD03F0D1FD032036E72A483C
:101F5000C7E747F6FF70C4E72748D9E747F6FF70A1
:101F6000D6E701067FF524AF1F4803F0F4FD2348B0
:101F7000194AC3690133C361936801339360204AEE
:101F80000D3003F01AFFD2E90032C01A61EB0201F2
:101F90000A061C4A01F0FF03106048BFA3F58073D6
:101FA000053043F100030B2873F1000321BF164AEB
:101FB000136801331360FFF7A5FA0220FEE603065B
:101FC00041BF054AD3690133D361104B01221A7016
:101FD000EEE638B0BDE8F081B403002048050020EB
:101FE000790100204E050020010400200000C842B5
:101FF00000FEFF464F0500200080FFFFF403002095
:1020000088010020AC030020A80300204D0500201B
:10201000014B1B68184700BF2800002030B504465C
:1020200085B00D4610220021684605F0B5FB02235D
:102030008DF802302A46044B01932146684603F08E
:1020400061F905B030BD00BF1120000080B5054624
:102050000E461746984602F0FFFE034600F030FD9C
:10206000DFF81890044649F80030424630463946B9
:10207000A84754F8090000F0C5FC00BF08000000A4
:1020800008B50446EFF31183202383F31288BFF3CE
:102090006F8F01F0E7FE204600F0B4FE024803F027
:1020A0003FFF04F033F8FCE74C7C00002DE9F047DB
:1020B000058B0446280717460CD501290CBF45F0AF
:1020C000100545F02005258387F31188BFF36F8F36
:1020D000BDE8F087022905F0070540F0948020460E
:1020E00003F02BFF052864D801A353F820F000BFAC
:1020F000C920000007220000B32100007521000064
:102100008F210000A121000001F007035A1F012ABE
:102110001FD8002221F00701062BD4F8008089B2D5
:10212000C4E9002209D1434603E0628B0132628395
:102130001B68002BF9D141F002012183204603F0F6
:10214000FCFE4FF0000900286DD041F020012183F2
:1021500069E0042B0AD121F0070189B221832046CE
:1021600003F0EBFE10B141F0200121834FF0000895
:10217000C14658E02369D3F80090238B23F007036E
:1021800043F0060323834FF0000846464BE02369E3
:10219000D3F80490238B23F0070343F00403F1E703
:1021A0002369D3F80890238B23F0070343F005033A
:1021B000E8E74FF00008C146E7E7012243F00803D3
:1021C000238387F31188BFF36F8F002A3BD1B8F1C7
:1021D000000F4AD1B9F1000F02D02D492046C8475F
:1021E000EFF31187202383F31288BFF36F8F238BC4
:1021F00023F008039BB22383D9063FD523F01002B6
:10220000228303F007056669218B002EBFF67CAFA1
:102210000023D4F8008021F00701C4E9003341F025
:10222000010121839946238B03F0070AAA4502D0B6
:10223000A268002AC1D1B8F1000F02D1B9F1000F94
:10224000DAD00022BAE7A1680029C0D00D680029C1
:10225000BDD04F68334652462046B8471DB12B6863
:1022600029461D46F3E72B46FAE7414633465246D8
:102270002046D8F8008003F08CFEA8E79A067FF588
:1022800023AF23F02002228303F0070527E700BFD6
:10229000BF5F0000014B036000207047807B00009F
:1022A00008B5044803F03CFE034803F039FE002063
:1022B00008BD00BF757C0000AA7C000008B503487B
:1022C000034A0021121A03F004FF08BD8801002010
:1022D000580500200748084A084908B5121A03F0B3
:1022E000FAFE0748074A0849BDE80840121A03F0F9
:1022F000F2BE00BF00000020880100205C810000C9
:1023000000000020000000205C81000038B5054678
:102310000C4699B1D1E901230F48096803F000FE8A
:10232000D4E90423E1680D4803F0FAFDE1690C48A3
:1023300003F0F6FDA1690B4803F0F2FD012D05D174
:10234000EFF305810848103903F0EAFD21462846DD
:10235000BDE8384002F0BCB9D77C0000077D000022
:10236000377D0000477D0000767D000030BFFFF71D
:10237000FDBF00BF2DE9F0410B4EDFF8308006EBCA
:102380000807CC1B054632460949204605F0F6F9F8
:10239000A01942460021083C05F0FEF92C6707F120
:1023A0000800BDE8F08100BF00000000040000004C
:1023B000FC7A000010B51D4C1D4803F0B1FDA36A66
:1023C000990130D51B4803F0ABFD1E20A36ADA014A
:1023D00003D5194803F0A4FD1F20144CA36A1B0366
:1023E00003D5164803F09CFD2120A36A590303D5A9
:1023F000134803F095FD22200C4CA36A9A0303D5E1
:10240000104803F08DFD2320A36ADB0303D50E489B
:1024100003F086FD2420054A936A6FEA03436FEABE
:102420001343936210BD1D20D0E700BF00ED00E014
:102430008A7D0000A37D0000B77D0000D27D0000F2
:10244000F17D0000177E0000327E000070B5244C44
:10245000064624480D4603F063FDA36AD90435D52A
:10246000214803F05DFD1720A36A1A0503D51F4814
:1024700003F056FD18201A4CA36A9B050FD51C4883
:1024800003F04EFDA16BA36A180407D5194803F0A9
:1024900047FD1EB1A36A23F40043A3621920104C28
:1024A000A36A590503D5144803F03AFD1A20A36A1C
:1024B000DA050DD5114803F033FD1B20084A936A55
:1024C00043F47F43936200232B7070BD1620CBE74B
:1024D000A36A9B04F2D50A4803F022FD1C20EDE715
:1024E00000ED00E05E7E0000757E0000877E00004B
:1024F0009B7E0000B57E0000CB7E0000E77E0000E2
:10250000007F000070B5264C064626480D4603F0B5
:1025100007FDA36AD80640D5234803F001FD11202A
:10252000A36A190703D5214803F0FAFC12201C4CBA
:10253000A36A9A070FD51E4803F0F2FC616BA36AE9
:102540001B0607D51B4803F0EBFC1EB1A36A23F062
:102550008003A3621320124CA36ADE0703D516483A
:1025600003F0DEFC1420A36A9C0603D5134803F095
:10257000D7FC15200A4B9A6AD10658BF9A6A9A6A04
:10258000920642BF5A6A22F400525A629A6A42F094
:10259000FF029A6200232B7070BD1020C0E700BFBD
:1025A00000ED00E0307F0000477F0000877E0000E4
:1025B0007B7F0000947F0000AB7F0000007F000065
:1025C0002DE9F0415D4B5F688AB00446C7F3080609
:1025D000002585F31188BFF36F8F02F07F43B3F1BD
:1025E0007F4F06D102F00C03082B13D1544803F09F
:1025F00097FC00252C464FF00008F31E8DF807804D
:10260000092B00F28B80DFE803F00A7F837B898946
:102610008989898710074CBF0C460125EBE749489B
:10262000464E03F07DFC8DF80780F36A9A0704D5C7
:10263000454803F075FC00232AE0F36A002B01DA19
:102640004248F6E7F36A5B00F5D5414803F068FCC1
:102650007369A26943F480737361BFF34F8FBFF353
:102660006F8F32F8023C726922F480727261BFF39C
:102670004F8FBFF36F8F03F47F42B2F55F4F27D1C7
:10268000DBB2022B24D12168324803F049FC2368D5
:102690009DF80720CAB902AE04F1200720686168DE
:1026A000324603C20834BC421646F7D1099A002DBF
:1026B00040D0C2F3080121B96FEA52226FEA4222E8
:1026C000099202A91846FFF721FE0AB0BDE8F08181
:1026D0001A4B9A6AD2B22AB10DF107010120FFF715
:1026E00011FF0FE09A6A12F47F4F05D00DF1070138
:1026F0000120FFF7ABFE05E09B6AB3F5803F9AD35C
:10270000FFF758FE0346C3E70DF107010020E6E797
:102710000DF107010020ECE70F488AE70F4B104945
:10272000104817F4F87FA6F1100208BF194603F00D
:10273000F7FB80E76FF30802C2E700BF00ED00E09F
:10274000F97F0000258000003D8000005F800000D0
:102750006E8000008E800000AB800000CB7F000008
:10276000E07F0000D0800000044B5A6942F0100264
:102770005A615A6922F008025A61704700ED00E080
:10278000EFF30880EFF3098101B57246FFF718FFF8
:1027900001BD00BF002080F31488BFF36F8F0F4886
:1027A00080F3088801F0EAFB00200D490860BFF3C0
:1027B0004F8F00F02BF8202080F3118809484FF448
:1027C0000061401880F30988EFF314800221084368
:1027D00080F31488BFF36F8F00F0B2F8981E0020CA
:1027E00094ED00E0580500200749D1F8902000231F
:1027F000C2F307221846934200DB7047C1F89830B5
:10280000C1F8A0000133F6E700ED00E008B572B6AC
:10281000002383F31388FFF7E7FF144B4FF0FF32D9
:10282000C3F88020C3F88420C3F88820C3F88C2024
:10283000C3F89020C3F89420C3F89820C3F89C20D4
:10284000C3F88021C3F88421C3F88821C3F88C2100
:10285000C3F89021C3F89421C3F89821C3F89C21B0
:1028600062B6BFF34F8FBFF36F8F08BD00E100E08A
:102870001EF0040F0CBFEFF30880EFF309808169AD
:1028800011F8021C0229FFD001B5724603F025FCA5
:1028900001BD00BF40B2002807DB044A4109012303
:1028A00000F01F00834042F82130704700E100E053
:1028B00040B200280CDB4309064900F01F0020331A
:1028C0000122824041F82320BFF34F8FBFF36F8F67
:1028D000704700BF00E100E0054B420900F01F0017
:1028E00053F82220012303FA00F01040704700BF84
:1028F00000E100E040B20028A8BF00F1604001F113
:102900000101B8BF064B4FEA4111ACBF00F5614071
:1029100000F00F00C9B2B4BF195480F8001370471B
:1029200014ED00E0044B054A23F07F039360BFF3EE
:102930004F8FBFF36F8F70470000000000ED00E085
:1029400008B5FFF7EFFF074AD2F8883023F4700389
:10295000C2F88830FFF7B2FCFFF7BCFC00F092F839
:1029600001F07AFF00ED00E042F8203C009B42F8C5
:102970001C3C0A49019B42F8183C029B42F8143C5B
:1029800021F001014FF0807342F8043C42F8081C2A
:102990000023203A02654367704700BF4D200000C6
:1029A00000B50B4B98600B4B1546026F1A600E4634
:1029B0002C4686F309880020034B984720460021C7
:1029C00000220023014C2047FF6000004D20000042
:1029D0001C05002020040020014B10221A617047C2
:1029E00000ED00E0054B5A699B689A421FBF044AFC
:1029F000536843F080535360704700BF1C050020AC
:102A000000ED00E0084B9B6883420BD1EFF3058398
:102A100043B1064B5A6842F080525A605A6A22F417
:102A200000425A6202F01EBA1C05002000ED00E0D0
:102A300011498A684FF030001044EFF3098C80E8A8
:102A4000F01F202080F31288BFF36F8F0B4F4FF0E1
:102A500000664A698A603E60106F094C2060506FC2
:102A60000023536780F3118802F1300090E8F01FD3
:102A70008CF30988704700001C05002004ED00E07D
:102A800020040020044800232021C2180133272BF2
:102A900082F80013F9D1704700E100E008B5EFF3C8
:102AA0000583064A103B02EBC30152F83300496824
:102AB0008847BDE80840FFF795BF00BF6479000074
:102AC000014800687047000020040020074AD2F83F
:102AD000FC3043F08073C2F8FC30054B00225A6092
:102AE0001A6842F001021A60704700BF00ED00E072
:102AF000001000E0034B00225A601A6842F0010205
:102B00001A607047001000E0014B002158687047C0
:102B1000001000E008B501F029FA0449044A0868E9
:102B200000230021FDF726FE08BD00BF6401002040
:102B300040420F00024B034A0348012100F066B8EF
:102B40000000012000000020807B0000084AC2F83D
:102B500098000B6823F01F03034343F01003C2F8EF
:102B60009C308B6843F00103C2F8A030704700BF6F
:102B700000ED00E02DE9F043DFF8608085B00E46FF
:102B80001F4604464FF00009B14523DA6068D8B10A
:102B90003FB1411E08421BD11F2819D92368194291
:102BA00016D12368019303F0CDFAA368034303937E
:102BB000D8F89050C5F30725D0B2013DA84207D8F8
:102BC00001A9FFF7C3FF421C09F101090C34DBE73F
:102BD0006FF01502104605B0BDE8F08300ED00E08F
:102BE000044B0522C3F89420BFF34F8FBFF36F8FC0
:102BF000704700BF00ED00E0BFF35F8F024B002283
:102C0000C3F89420704700BF00ED00E010B5034CFE
:102C100001232278FFF7AEFF207010BD5105002080
:102C20002DE9F0435A4B5B4DD3F890302C68C3F339
:102C300007239C4285B000F2A780FFF7DDFF00204C
:102C40000C2684421AD1544EDFF844913470684601
:102C5000FFF720FB514C524D80460027B84514D158
:102C600033784B490020D1F89020C2F307229342D9
:102C7000C0F28480FFF7B4FF002045E0696806FBDE
:102C80000011FFF763FF0130DBE7009800EB07114D
:102C90004FEA071CCB682340B3F5000F4DD00AD88C
:102CA000B3F5001F33D0B3F5800F3BD0B3F5801FD1
:102CB00013D00137D2E7B3F1007F47D0B3F1805F83
:102CC0004DD0B3F1807FF4D150F80C3088684A6859
:102CD00003F038FA40F0887009E050F80C3088684A
:102CE0004A6803F02FFA40F0885040F43020CDE9D4
:102CF00001230390D9F890303078C3F30723013BC8
:102D0000984234D96FF0150005B0BDE8F08350F853
:102D10000C3088684A6803F015FA40F0885040F497
:102D20000020E4E750F80C3088684A6803F00AFA9B
:102D300040F0C06040F40030D9E750F80C308868AB
:102D40004A6803F0FFF940F08270D0E750F80C3089
:102D500088684A6803F0F6F940F48020C7E750F825
:102D60000C3088684A6803F0EDF92843BFE701A9F1
:102D7000FFF7ECFE3378013333709AE7C1F89830EF
:102D8000C1F8A00001336EE74FF0FF30BCE700BF91
:102D900000ED00E08C7B0000510500200000F0FFFA
:102DA0000000021108B50649064821F00701C1F1EB
:102DB000005202F5803203F070F8002008BD00BF19
:102DC000AB1E002024040020044A0123C2F8403531
:102DD0004FF080420020C2F87835704700E0014093
:102DE00048B1054B054A1B68B3FBF2F35843044B4B
:102DF00043F00103184770476401002040420F0070
:102E0000207B0000BFF34F8F0549064BCA6802F4D0
:102E1000E0621343CB60BFF34F8F00BFFDE700BFFD
:102E200000ED00E00400FA0508B5054A054B136003
:102E300010463F23536001F0CBF9002008BD00BFCE
:102E400030040020FFFF0F00084B70B5C31A0D4679
:102E500007499B10044659430648402203F08BF96A
:102E60002B4601462046BDE8704018474C04002020
:102E7000B76DDBB6D878000073B50C4C0C4A402314
:102E8000041B00930D460B460A49A41061430646F5
:102E9000094803F09BF9014628B130462B4602B0A1
:102EA000BDE87040184702B070BD00BF4C04002060
:102EB0003B620000B76DDBB6D87800000022F8B5A1
:102EC000012105461046FFF715FD104801F0A8F94D
:102ED0000446B8B901F0C4F92F690D49384603F02A
:102EE0007BF8031E09DB01263E642D69084905F1C4
:102EF0001C0003F071F8031E02DA1C462046F8BDE0
:102F0000EE64FBE76FF00404F8E700BF5D300000FB
:102F1000AC7B00001FB500220123CDE902236C46E3
:102F2000074A6B46CDE9004403F080F928B94FF415
:102F300080420023684601F029FD04B010BD00BFA7
:102F40004D62000010B5064C23782BB94FF4A570E4
:102F500004F0CBFA01232370BDE8104001F018BA49
:102F60005205002010B5EFF31184202383F312885B
:102F7000BFF36F8F074A136823F00201DB0711606C
:102F800002D4012003F07BFD84F31188BFF36F8F1F
:102F900010BD00BF9C04002030B4104B0C2202FB7B
:102FA000003301460020D3E90E529863EFF31180FD
:102FB000202484F31288BFF36F8F1C6C04F0C004CC
:102FC00044F002041C6480F31188BFF36F8F1DB1BD
:102FD0002B46034830BC184730BC70474C040020D7
:102FE000D878000010B4EFF31180202282F3128809
:102FF000BFF36F8F17490B6843F0020413F001030E
:103000000C601AD04FF08043D3F80C14D3F80C3472
:1030100013F0010311D0EFF3118182F31288BFF393
:103020006F8F0D4A136C03F0C00343F00203136467
:1030300081F31188BFF36F8F012380F31188BFF3F1
:103040006F8F1BB110BC0020FFF7A6BF10BC012082
:1030500003F00DBD9C0400204C04002010B1012899
:1030600004D07047034B1B6C5B0701D1FFF794BF83
:10307000704700BF4C0400202DE9F0413849BFF3F0
:103080005B8F8046012251E8003F41E80020002884
:10309000F9D1BFF35B8F33B9324933484B60CB6012
:1030A0008A6002F0ACFF08F1FF33012B4BD8B8F176
:1030B000010F07D14FF08043D3F81C3403F0030312
:1030C000012B40D004F05AFA054658B1EFF31186AF
:1030D000202383F31288BFF36F8F0125234F4FF016
:1030E00080441EE0224B1B78002BEFD04FF0804332
:1030F0000222C3F808230646F0E735B3304603F052
:1031000012F8D4F8183563B9D4F804214AB1C4F8D8
:103110000431D4F804310123C4F81835C7F88031DC
:10312000A360D4F81824D4F81834D203E5D503F0FA
:103130000303012B02D0B8F1010FDED155B186F3A4
:103140001188BFF36F8FBDE8F0810021212004F0CA
:1031500089FAD6E74FF080430222C3F80423F2E74E
:1031600048040020380400206804002000E100E04A
:1031700053050020EFF31182202383F31288BFF35D
:103180006F8F0A4BD3F8001161B10021D3F8080505
:10319000C3F80011D3F80031C0B282F31188BFF335
:1031A0006F8F70476FF00A00F7E700BF00D0004054
:1031B000F0B503468478C678EFF3118E202080F3B3
:1031C0001288BFF36F8F1D7893F801C0641B3440E1
:1031D000A24288BFA2B2AF18374028461F708EF3B4
:1031E0001188BFF36F8F8F188F4218D165450CD1AE
:1031F000EFF31181202080F31288BFF36F8F1878CE
:10320000587081F31188BFF36F8F1B79A41AA34202
:1032100028BF074B90B224BF01221A60F0BD03EB18
:10322000000E01309EF805E001F801EB3040DBE7CD
:1032300000D00040DB432DE9F04713F001050F46B5
:10324000144604D02448FFF7B3FFBDE8F087B2B3BB
:10325000EFF31186202383F31288BFF36F8F0D20C5
:10326000FFF73AFB80460D20FFF722FB86F311881B
:10327000BFF36F8FDFF864A0194ECAF80051DAF877
:1032800000314FF400590123CAF800302546C6F832
:103290008091DAF80031A3B1FFF76CFF031EA4BFE1
:1032A00005F1FF35ADB2C6F88091A8BF7B55002D62
:1032B000EFD1B8F1000F02D00D20FFF7EBFA204656
:1032C000C3E7EFF31180202383F31288BFF36F8FDE
:1032D00002F029FFDDE700BFC004002000D000405D
:1032E00000E100E070B50D4614460CB9204670BDF3
:1032F0004FF0FF334FF0FF320C4801F047FB2246FE
:1033000029460B48FFF754FF0646084801F00AFB20
:103310003EB94FF0FF324FF0FF33064801F036FB65
:10332000E6E7A41BA4B23544DFE700BFA0040020F9
:10333000D5040020B004002038B5012211461748FA
:1033400004F010F9154D0122002105F1100004F0E0
:1033500009F940F207432B874FF070632B620C236F
:1033600085F8243000240E4B85F83540EC86D3F8E0
:10337000042522F00102C3F804250121C3F800410D
:10338000D3F80021C3F80413224619600D20FFF77B
:10339000B1FA0D20FFF77EFA204638BDA0040020C8
:1033A00000D0004010B5FFF7E5FE002820DB174BEA
:1033B00093F8222093F8214093F82310141B31EA4C
:1033C0000404C0B20DD193F8372093F8364093F837
:1033D0003810141B31EA04040BD10D4B01225A6042
:1033E0000EE09C180132114084F8250083F8221069
:1033F00010BD9C180132114084F83A0083F8371050
:103400000448BDE8104001F08DBA00BFA0040020C0
:1034100000D00040B004002038B5430906D10A4B63
:10342000596819B101250C68854001B938BD8A6811
:103430002A4002D04B68054898471CB123682146B2
:103440001C46F2E72346FAE7E4040020F478000083
:1034500038B54568A86890B103F0AFFD014670B972
:10346000A86803F08EFD044658B902460649A868CC
:1034700003F078FD224605210620FFF73BFA0020E5
:1034800038BD6FF00400FBE7193400002DE9F04F60
:10349000DFF84CE1534D00EB810140F2FF1C4FF08F
:1034A0000108814202D10020BDE8F08F0468C4F316
:1034B000C72616F00806C4F3C327C4F308037BD15C
:1034C000240E043C1EF80770634508BF4FF0FF331D
:1034D000152C74D8DFE804F00B1216737373731C89
:1034E00022737373737373737373252F3235C2F83A
:1034F00008350024B3F1FF3F1BD027E0C2F80C359C
:103500000124F7E7C2F810355C1C12D0002451E00A
:10351000C2F80835002FF7D10627F5E7C2F80C35B9
:10352000F8E7C2F860354488B3F1FF3F04F00104C6
:103530000AD10430B5E7C2F86435F4E7C2F868355B
:10354000F1E7C2F86C35EEE75CBB01245FEA531982
:1035500038D14FF001094FF0A04A09FA03FBCAF82D
:103560000CB5D0F800A00AF4004BBBF1000F0CBF63
:103570004E46012403F01F095B092BD14FEA89094C
:1035800009F1A049CAF3412AD9F800372B4043EA90
:103590008A0343EA0723334343EA4403C9F8003765
:1035A000C7E75C0912D14FF0A04908FA03F4C9F843
:1035B00008450124A146D4E76FF0150074E76FF0C9
:1035C000850071E70023C3F80C35FFDE0023C3F844
:1035D0000835FAE709F5E079002353F82930F4E7D4
:1035E00053810000F0F8FCFF2DE9F04F89B09946B7
:1035F000436801938B8804699D0480460F46924678
:1036000000F11F814FF0FF324FF0FF3304F13C0017
:1036100001F0BCF92763D8F81060D8F8043096F8A8
:103620008D2012B1F26A974275D0B7F804C01CF42D
:10363000006F40F03C811CF0090F40F035810CF424
:10364000FC62B2F5807F40F02F813D68AD4A954223
:1036500040F22A819E46BEE80F000DF10C0BABE84C
:103660000F00DEF80030CBF80030A74B9D4240F24F
:10367000F180A64B9D4240F2F080A54B9D4240F266
:10368000EF80A44B9D4240F2EE80A34B9D4240F25E
:10369000ED80A24B9D422CBF4FF000454FF080457E
:1036A0001CF0020105950CF0040300F0E280002BF1
:1036B0000CBF02230323CCF3001C8DF818308DF8C7
:1036C00019C03368D3F80825501C0ED002F01F0033
:1036D00001235209002940F0CE80002A40F00A81DF
:1036E0004FF0A0428340C2F80C3596F88D302BB1D4
:1036F000304603F0DAFD002386F88D30884A3346E1
:1037000003A9304603F0B1FD002840F0BC8001233E
:1037100086F88D30F762012384F88C30019B196A9A
:103720004A1C02D0D86900F0FDF8BAF1000F40F051
:10373000C180C4F860A00023636604F1780204F13C
:10374000640104F1600002F06DFF6067B9F1000FE1
:1037500040F0B980C4F868900023E36604F1800269
:1037600004F16C0104F1680002F05CFF0023E067E3
:10377000606EE3651A46824240F0AE800022E56E3C
:103780001146A94240F0AF80E06A93422CBF236704
:10379000226748B1037D3BB10121083002F055FF9B
:1037A000E36A186903F0A1FE404602F0F0FF256FBE
:1037B0004FF4FA535D43E36A00261B68B5FBF3F54B
:1037C0004FF4004CC835314640F2E7304FF47A727E
:1037D0000023E5FB0C01FCF7CDFF04F14C0702468A
:1037E0000B46384601F0D2F818B9E56D15F1740FA3
:1037F00016D1C4F88860204603F057FD84F88D6028
:10380000D8F810506FF07308C5F85C8005F14C00D3
:1038100001F088F885F88C60384601F0DDF84546FF
:10382000E36A93B31A7D82B3998811F480562CD140
:10383000186903F05AFEE06A3146083002F005FFCD
:1038400023E0636C002B7FF4DDAE236B99427FF4A1
:10385000D9AEE0E64FF0007522E74FF080651FE734
:103860004FF000651CE74FF0805519E74FF0005509
:1038700016E79B081FE7002A3FD14FF0A042834084
:10388000C2F8083531E76FF00405E36A13B19B888D
:103890009B0405D40023236304F13C0001F042F8AB
:1038A000284609B0BDE8F08F6FF01505EDE76FF021
:1038B0008505EAE7DAF800302366002B3FF43BAFDA
:1038C000DAF8043038E7D9F80030A366002B3FF46B
:1038D00043AFD9F8043040E7216E01EBC201013259
:1038E00049680B4447E7A06E00EBC1000131406816
:1038F000024446E7C1F80C15FFDE0023C3F8083583
:10390000FAE700BF47E801008FD003001FA10700BE
:103910003F420F007F841E00FF083D0000127A0026
:10392000016800002DE9F0410D46064603F096FBC4
:10393000002207462946304603F047FB6B0905F095
:103940001F0429D1A40004F1A044164BD4F8002789
:10395000134043F00C03C4F8003702F0D8FF804650
:103960003368DB597BB100273046294603F074FBEE
:10397000D4F800270B4B134043F00403C4F800377E
:103980003846BDE8F08102F0C2FFA0EB080006282F
:10399000E6D96FF07307E7E704F5E074002353F806
:1039A0002430FFDEF0F8FCFF70B5012383400F4A9E
:1039B000BFF35B8FDC4352E8001F01EA040542E8D5
:1039C0000056002EF7D1BFF35B8F4FF48032824058
:1039D0000748C0F80823BFF35F8FBFF36F8F03EA78
:1039E0000100003818BF012070BD00BFF80400209E
:1039F0000010014070B41249D1E90034D01AC31844
:103A000044F10004C2F30E06C1E90034A6F5805368
:103A1000B3F5C04F09D20B4B1B685A0CDB039C1942
:103A2000094B42F10005C3E90045EFF31181202362
:103A300083F31288BFF36F8F70BC01F0EFBB00BF40
:103A4000B0010020FC040020B801002011B3BFF336
:103A50005B8F0123104A834052E800CF4CEA030CED
:103A600042E800C10029F7D1BFF35B8F0B4A4FF446
:103A700080338340C2F80433094BBFF35B8F1B686C
:103A8000BFF35B8FC340DB0742BF064B4FF40032EE
:103A9000C3F80021704700BFF80400200010014067
:103AA000F004002000E100E030B5144B1868410C30
:103AB000C003BFF35F8F124BD3F8043547F6FF7294
:103AC00093420AD10F4AD2E90045844275EB0102C4
:103AD00009D3C01841F1000130BD181841F10001AF
:103AE000B3F5006FF8D2074BD3E90023904271EB96
:103AF0000303F1D210F50040ECE700BFFC04002006
:103B000000100140B80100202DE9F04F85B01646A5
:103B10001F469DF840A00446FFF746FF0190FFF7BF
:103B2000C3FFB04271EB070361D2301A44F20103C4
:103B300067EB0101984271F1000109D36FF015059F
:103B400020460199FFF782FF284605B0BDE8F08FB7
:103B5000354B03EB0413D3E902239F4208BF96427F
:103B600056D032494FF4803804F1500508FA04F871
:103B7000AD002046C1F84883ADB202F0BCFEC6F3EA
:103B80000E0B05F1804504F5A87305F588355846F8
:103B90004FF003090293C0F30E030BB90120034653
:103BA000029A41F82230C1F84483D1F80435C01A92
:103BB0000338C0F30E0043F6FD7C604528D9286821
:103BC00068B1D1F804350393A3EB0B00C0F30E00EA
:103BD000B0F5804F1CD9204602F08DFE039BBAF150
:103BE000000FABD109EB030009F10109D3E7BAF1EA
:103BF000000FA3D101230E4ABFF35B8FA34052E80D
:103C0000000F184342E800010029F8D1BFF35B8F91
:103C100005490E98230101EB0412C8500F9B536015
:103C2000C2E9026700258BE79001002000100140E7
:103C3000F004002070B5294C294B2A4A86B0C4F8FC
:103C40000833C4F84833284B00254FF0FF304FF0BD
:103C5000FF314FF48036C4F80855C3E90201C4F8B7
:103C60000463C3E906014FF400330121C4F80433AF
:103C70001120C2F880312A46FEF73CFE1120FEF7E3
:103C800009FE1A4B01200322A06020601A60184B25
:103C9000009343F6FF720023CDE90155FFF734FF8F
:103CA0000220FFF7E9F9134A13491368134823F078
:103CB0000103136047F6FF73C4F844630DF1170264
:103CC000C4F8403502F0BFFE002804DB9DF8170061
:103CD00000F092FA284606B070BD00BF0010014007
:103CE00001000F0000E100E090010020F804002036
:103CF000F5390000F4040020081001404011014093
:103D00002DE9F743354CD4F80433D90318D54023B3
:103D10000022990810290BD1D4F8403133B1002387
:103D2000C4F84031D4F840314FF480324423F0E7F6
:103D30000433502BEDD11AB1294A136801331360B3
:103D4000D4F804339A0343D5BFF35B8F254B53E874
:103D5000002F22F0020143E800100028F7D1BFF342
:103D60005B8F930702D4D4F844318BB30025C4F899
:103D70004451D4F84431FFF797FEEFF3118220232A
:103D800083F31288BFF36F8F174BD3E90667B042F6
:103D9000B94120D34FF0FF304FF0FF31C3E90601A6
:103DA000D3E904981D614FF40033C4F84833C4F8D4
:103DB0004451D4F8443182F31188BFF36F8FB9F1C5
:103DC000000F05D0CDF8008032463B460120C847A1
:103DD00003B0BDE8F083A946EDE700BF0010014045
:103DE000FC040020F00400209001002030B5431CAA
:103DF00085B043F6FF7223D09042A8BF1046012839
:103E00000446B8BF0124FFF74FFE0F4BD3E9001360
:103E1000401AB0F5804F43F6FF7513D22218AA421C
:103E200028BF2A4652184FF0000008490091CDE9FA
:103E3000010043F100030120FFF766FE05B030BD2D
:103E40001446E0E72A46EDE7B0010020F53900000E
:103E500008B5FFF729FE024B1B68C01A08BD00BF5A
:103E6000B001002010B5084C012363601120FEF75B
:103E70001FFD064BC4F80833C4F84833044B4FF415
:103E80000032C3F8802110BD0010014001000F0076
:103E900000E100E037B5046994F835300D464BBBBE
:103EA0000B7B022B29D10B680BBB94F834204B6899
:103EB000D2B9134A591E914219D823630DF1070153
:103EC000204603F0E1FA10F10C0F0BD0AB689DF81F
:103ED000070013B1021D44F8223094F83430013346
:103EE00084F8343003B030BD226B9A42E6D06FF0D4
:103EF0001500F7E76FF00F00F4E76FF08500F1E7CA
:103F0000FEFFCF0710B50022046901211020FEF743
:103F1000F1FC00232046034ABDE81040194603F097
:103F20008FBA00BF293F0000F8B50A4E0C460127A2
:103F300004B9F8BD94FAA4F5B5FA85F52B1D56F829
:103F4000233013B104482946984707FA05F524EAB7
:103F50000504EDE72C0100202C790000024AD2F87C
:103F60000034002BFBD0704700E00140014B024AB7
:103F70001A607047640100200090D00310B502F071
:103F800003FD40B14FF08053884AD3F82433C3F384
:103F90000423C2F8403502F005FD10B1844B854A78
:103FA0005A6702F0F1FC48B14FF080534FF0804265
:103FB000D3F84432C3F34233C2F83C3502F0F2FC8A
:103FC00030B17D4AD2F8FC3023F08073C2F8FC3067
:103FD00002F0DAFC40B14FF080430022C3F80C211C
:103FE000C3F81021C3F8382502F0DCFC20B14FF0F3
:103FF00080430322C3F8A02502F0D4FC60B16F4BCC
:104000000522C3F810260122C3F888260022C3F82F
:1040100018263F22C3F814264FF08053D3F83021DE
:10402000511C09BF4FF07043D3F8343193F8E02F9F
:10403000D3F8E83F08BFC3F30313062A49D1033B73
:10404000012B46D94FF080525D4BD2F80414C3F8CF
:104050002015D2F80814C3F82415D2F80C14C3F8AC
:104060002815D2F81014C3F82C15D2F81414C3F87C
:104070003015D2F81814C3F83415D2F81C14C3F84C
:104080004015D2F82014C3F84415D2F82414C3F80C
:104090004815D2F82814C3F84C15D2F82C14C3F8DC
:1040A0005015D2F83014C3F85415D2F83414C3F8AC
:1040B0006015D2F83814C3F86415D2F83C14C3F86C
:1040C0006815D2F84014C3F86C15D2F84424C3F82C
:1040D000702502F059FC48B14FF080534FF08042F8
:1040E000D3F8583203F04F03C2F8E43E02F04CFC20
:1040F00048B14FF08043D3F80024D20744BF6FF09B
:104100000102C3F800244FF08053D3F83021062A6F
:104110000BD1D3F83431033B022B81BF294AD2F8AB
:104120003C3743F48063C2F83C374FF08053D3F8F8
:104130003021062A0CD1D3F83431033B032B81BF45
:104140004FF01023D3F808224FF08043C3F85825CE
:104150004FF01023D3F80022002A03DBD3F80432F7
:10416000002B22DA184901234FF01020C1F8043542
:104170001524FFF7F3FEC0F80042FFF7EFFEC0F88A
:104180000442FFF7EBFE0023C1F80435FFF7E6FE1B
:10419000BFF34F8F08490D4BCA6802F4E062134326
:1041A000CB60BFF34F8F00BFFDE710BD0030014073
:1041B00000C007400DF0ADBA00ED00E00050004037
:1041C00000C000400010004000E001400400FA057B
:1041D000014B1860704700BF0005002010B5054B6B
:1041E0001868144602F0F4FB0028A4BF20700020D9
:1041F00010BD00BF00050020024A01238340C2F821
:104200000435704700F00140014B00201B6818473F
:1042100004050020014B1B68184700BF040500205F
:1042200010B50C4C237993B9012323710A4B2060FC
:10423000002818BF184600F049F850B9236807480D
:10424000002BBDE8104008BF184600F08FB86FF093
:10425000770010BD0405002009420000154200004F
:1042600008B5064B1B683BB10020FEF735FB18B9BB
:10427000BDE80840FEF70EBB08BD00BF04050020E6
:1042800038B54FF080440123C4F80833636000233D
:10429000C4F80031D4F8003142F21075D4F80C247F
:1042A000D4F80C34D20307D5DB0705D5012002F082
:1042B0008DFB013DF2D138BD02F0F0FB0028FAD0B1
:1042C000014B00225A71F6E70C05002038B5084C66
:1042D00025794DB901232060237102F0DFFB08B975
:1042E000002038BD6571FBE76FF07700F9E700BF8C
:1042F0000C0500204FF080430022C3F80021D3F8C2
:104300000021094901221A60096811B1C3F8042388
:104310007047D3F80021002AFBD00022C3F8002107
:10432000D3F80031704700BF0C05002010B54FF0E6
:104330008043D3F80423D20715D5D3F8002192B1D6
:104340000022C3F800210124D3F80021C3F8084358
:1043500002F0A4FB044B10B15A7922B95C71BDE89C
:1043600010401B68184710BD0C050020074A137940
:1043700043B90121106011714FF080421846C2F814
:10438000183570476FF07700704700BF14050020A4
:1043900010B54FF080432B4CD3F81814D3F81824E1
:1043A00011F4803F35D002F00303012B01D06BBB29
:1043B00000234FF08042C2F818350023C2F80431C0
:1043C000D2F804314FF08053D3F83021511C09BF8B
:1043D0004FF07043D3F8343193F8E02FD3F8E83F2F
:1043E00008BFC3F30313062A05D1033B012B02D9EF
:1043F0008A2002F0EBFA4FF0804301229A60226893
:104400008AB9D3F80421002AFBD014E002F063FB40
:10441000CEE7D3F81424D207CAD5D3F81C249007CA
:10442000F4D422681AB10222C3F8042310BDD3F8D1
:104430000421002AFBD00022C3F80421D3F8043160
:10444000F4E700BF14050020F8B54FF08043194F82
:10445000D3F80443012504F01A04002604B9F8BD7A
:10446000B4FA84F0C0F11F00830003F580739BB29F
:1044700003F1804305FA00F21968D2B224EA02047B
:104480000029EBD01E601B684FF08043022AC3F85E
:1044900008230BD1D3F81814D3F81814890705D1C1
:1044A000C3F81855C3F804239D60D7E73B68C0B232
:1044B0009847D3E71405002073B5CEB200EB46064B
:1044C0000446B38ADB070D4627D502F02CFCB38ADD
:1044D0009A0608D55A0B236803EB82030022C3F81F
:1044E0001025C3F8102520462946002402F0ACFB15
:1044F000B48201A8019502F024FB019A084B02F551
:10450000E07250F822100B404FF0A04143F002033C
:1045100041F82230204602B070BD6FF01500FAE776
:10452000F0F8FCFF014802F071BA00BF68010020FA
:1045300010B504480C4602F04BFA0028A4BF2070C6
:10454000002010BD6801002000F01F0340090BD1BE
:104550009B0003F1A043074AD3F800170A4042F03A
:104560000302C3F800277047002203F5E07352F8F6
:104570002330FFDEF0F8FCFF38B5CB7B05460C4658
:10458000002B38D10B7B0878012B6DD802F053FE3D
:10459000227802F01F0352096FD19B0003F1A04360
:1045A000394AD3F800170A4042F00102C3F8002745
:1045B0006078FF2804D002F03EFE6078FFF7C4FF69
:1045C000A278FF2A0FD002F01F03520955D19B0099
:1045D00003F1A0432C4AD3F800170A40A17B42EA1A
:1045E0008102C3F80027E078FF2804D002F030FEF3
:1045F000E078FFF7A9FFE37885F82230237C9BB9A8
:10460000637829682078FF2B18BF1A46A378C1F871
:10461000080508BF4FF0FF32FF2B08BF4FF0FF33F4
:10462000C1F80C25C1F810352B68A268C3F8242501
:10463000637B227B2968003B18BF0123022A16D026
:10464000032A17D0012A01D143F00203C1F85435DF
:10465000637985F823306B68ABB12868BDE83840D2
:1046600040F30730FEF716B902F0F2FD90E743F091
:104670000403EBE743F00603E8E7002203F5E073E9
:1046800052F82330FFDE38BDF0F8FCFF00F01F03C6
:1046900040090BD19B0003F1A043074AD3F8001750
:1046A0000A4042F00202C3F800277047002203F5D7
:1046B000E07352F82330FFDEF0F8FCFF0368034A92
:1046C00001F5C07143F82120704700BF3546526E96
:1046D00038B5EFF31185202383F31288BFF36F8F72
:1046E000064B9C6802F030FF85F31188BFF36F8F93
:1046F0002046BDE83840FEF785B900BF1C05002004
:1047000038B50A4B53F82040013053F82050A542E9
:1047100000D838BD606830B1037EDB0701D402F0F9
:10472000E8FE0834F3E723689847FAE7287C00009E
:1047300070B52A4B2A4C2B4D86B0012203201A70EB
:10474000FFF7DEFF03F019F80420FFF7D9FF264634
:10475000AE4204F130040FD300F0BAFA204CAC4260
:1047600026D300F0C9FAFDF7C3F81F4A938923F056
:104770000103938106B070BD54F80C3C059354F8C6
:10478000103C049354F8143C039354F8183C0293DF
:1047900054F81C3C019354F8203C009354E90A233C
:1047A00054E90C0100F04EF954F8303C5E65CEE758
:1047B000D4E90A23B3F1FF3F08BFB2F1FF3F05D0B0
:1047C00052EA0301206803D102F065FF3034C6E7E6
:1047D0000649183000F092FCF8E700BF53050020AE
:1047E0009C7A00009C7A0000400200203F76000086
:1047F00070B5002386B00122CDE90423114E124D7D
:1048000001930F22CDE902321049142303FB005516
:1048100006EBC0164FF4A072044602FB00110C4BCD
:104820000095304600F00EF9337C2C7423F004031D
:104830003374084BEE60013403EBC4236B6006B0A5
:1048400070BD00BFC00100201C050020580D0020D5
:104850004F750000580500207FB50020FFF750FF7E
:10486000284B83F30888284C636943F40073636121
:104870000025E02384F82230E57725766576A57655
:1048800084F82050636A43F4E023636284F8235081
:10489000FDF76AFFFEF7A0F84FF0FF33A362E36273
:1048A000FEF7BEF9FEF746F91848194C00F008F972
:1048B0000120FFF725FF0220FFF722FF00F046FA54
:1048C000144B15495C61154B059301234FF480523D
:1048D000CDE90353CDE90155114B0095204600F079
:1048E000B1F8237C064623F004032046237402F02B
:1048F00083FE2846FFF77CFF094A31462046FEF733
:104900004FF800BF580D002000ED00E0C00200206D
:10491000400200201C050020980E00203F8100006E
:104920003147000070B5EFF31186202383F312881E
:10493000BFF36F8F0468A0421AD0CCB1D4E9003223
:1049400013605A60237C002523F002032374C4E91A
:104950000055A56004F1180002F0D4FE2046A567BA
:1049600002F04AFE31460848BDE8704002F077BECA
:10497000D0E902329A4218BF0133836086F311886E
:10498000BFF36F8F70BD00BF5405002013B5EFF368
:104990001181202484F31288BFF36F8F846844B19F
:1049A000013C846081F31188BFF36F8F002002B057
:1049B00010BD52EA030406D181F31188BFF36F8F53
:1049C0006FF00F00F3E7CDE900230246014800F045
:1049D0005DF9ECE75405002070B50546EFF311864C
:1049E000202383F31288BFF36F8F00232C68A54226
:1049F00018D0BCB1D4E9003213605A60227C002385
:104A000022F00202C4E900332274A36004F118000A
:104A100002F078FE6FF00A03A367204602F0ECFD77
:104A20000123E3E70022AA6023B986F31188BFF3CC
:104A30006F8F70BD31460248BDE8704002F00FBE76
:104A4000540500202DE9F04385B0984600F1580345
:104A50000732C0E91633109B838122F00705042337
:104A60000026037401EB05090F9B83730F46C0E911
:104A7000066649468660C6730446FDF77BFC073030
:104A80000E9B20F00700A066C4E9187502930D9BE9
:104A90000193A9EB00090C9B00934A464346394613
:104AA0002046FDF761FF054B66659B6803B1DB6E31
:104AB000E366484605B0BDE8F08300BF1C05002052
:104AC0000123037483810023C0E91833C366014BBB
:104AD000986070471C050020094A93686FF00A012E
:104AE0009967084958674B6843F080534B6000232F
:104AF00083F31188BFF36F8F9368986F704700BF7F
:104B00001C05002000ED00E070B590F91020037C3A
:104B1000002A2FDBD9062DD11A4C63F07F032246E1
:104B2000037452F8183FE169934207D1C0E90021AC
:104B30000860E0610FE09942F8D01B68002BF5D0C7
:104B400093F90E6090F90E50AE42F4DD5968C0E959
:104B5000003108605860A569954200D005B9E56844
:104B6000A3681A7CD20606D1DA897F2A03D9AA69FA
:104B70000AB9636170BDAB4202D0284600F040FA2A
:104B80006561F7E71C05002038B590F91020037C1B
:104B9000002A014604DA03F07F03037402F0F4FCF8
:104BA0000D4D2A46AB6852F8184F944200D004B914
:104BB000EC688B4207D01A7CD20604D1DA897F2AAE
:104BC00001D9A2692AB1A34202D0204600F018FA06
:104BD00023466B6138BD00BF1C050020B3F1FF3FC9
:104BE00008BFB2F1FF3F03D00249183000F086BA87
:104BF000704700BF3F760000034648B9EFF30582D7
:104C000032B9064A51699268914201D0FFF764BFF8
:104C100083F31188BFF36F8F704700BF1C0500201E
:104C200038B5184CA168E0690B68814214BF1A4678
:104C3000002249680B605960A368E1692AB9124AE9
:104C4000C3E900210B60E3610AE092F90E5093F989
:104C50000E00854212DD5168C3E900210B605360EC
:104C6000A569094B9D4200D005B9E568A3689D423E
:104C700002D0284600F0C4F9656138BD8A42DED012
:104C80001268DBE71C05002034050020F8B50E4B48
:104C90000C4611460D4A98681060DDE90667EFF38F
:104CA0001182202282F31288BFF36F8F9D682846FD
:104CB00002F07CFC284632463B46FFF78FFF204639
:104CC000BDE8F840FFF708BF1C0500203C050020A8
:104CD000EFF31181202383F31288BFF36F8F054B0D
:104CE0009A68D37B013BD37381F31188BFF36F8F35
:104CF000704700BF1C05002070B5EFF3118620231C
:104D000083F31288BFF36F8F0F4DAB68DA7B0132EC
:104D1000DA732A4652F8184F944200D004B9EC686E
:104D20001A7CD20604D1DA897F2A01D9A2692AB174
:104D30009C4202D0204600F063F923466B61304666
:104D4000BDE87040FFF758BF1C050020024B03F17F
:104D50001802C3E9062270471C05002070B5EFF366
:104D60001186202383F31288BFF36F8F1A4CA1683A
:104D7000E0690B68814214BF1A46002249680B6043
:104D80005960A368E1692AB9144AC3E900210B609C
:104D9000E3610AE092F90E5093F90E00854216DDA8
:104DA0005168C3E900210B605360A5690B4B9D421C
:104DB00000D005B9E568A3689D4202D0284600F0FE
:104DC0001FF965613046BDE87040FFF785BE8A4235
:104DD000DAD01268D7E700BF1C0500203405002098
:104DE000F8B550EA010306460C4603D1FFF7B6FFBB
:104DF0000020F8BDEFF31187202383F31288BFF35F
:104E00006F8F124D124BA8681860FFF7BDFEA8689F
:104E1000104923463246183000F070F9AA68137C16
:104E200043F00403137404463846FFF755FEAB689D
:104E3000D3E90A23B3F1004F08BF002AD8D102F00A
:104E400096FC201A20EAE070D3E700BF1C05002082
:104E50003C0500203F760000014B9868704700BF7A
:104E60001C0500202DE9F84304468789EFF31186DD
:104E7000202383F31288BFF36F8F037C190705D5B6
:104E800086F31188BFF36F8FBDE8F883D90943F02B
:104E900008026FD10274A36813B1204602F07CFBB4
:104EA00004F1180002F02EFCA56D04F15808A84585
:104EB00011D04FF0000975B1284602F06DFB05F1E5
:104EC000180002F01FFCC5F878902846FFF71CFE7A
:104ED000A56DA845EFD1DFF8BC80D8F808309C421A
:104EE00050D1EFF30589B9F1000918BF4FF001095E
:104EF000D8F81850284A954200D00DB9D8F80C506F
:104F0000AB4202D0284600F07BF82046C8F8145087
:104F100001F0F2F8B9F1000F02D02048FFF7D0FD00
:104F2000D8F808309C4230D1EFF305836BBBA289DF
:104F3000D20711D586F31188BFF36F8F83F31188E1
:104F4000BFF36F8F0423184602DFEFF3118620238F
:104F500083F31288BFF36F8F3046FFF7BDFDFB0769
:104F600092D5002383F31188BFF36F8F0423184673
:104F700002DF89E703F07F0343F00803037402F0C4
:104F800003FB88E74FF00009B2E786F31188BFF30F
:104F90006F8FE4E71C05002034050020C0020020CC
:104FA000027C12F01F02034610D10A4988420DD03C
:104FB0000949086868B1D9897F2909D893F90E2071
:104FC000064B1B689A42B8BF00207047002070470C
:104FD00010467047C00100206C01002040050020F1
:104FE000044BC01A044BC0105843044B01221A54FE
:104FF000704700BF40030020ABAAAAAA54050020B6
:1050000070B50C4B0C4D1E7CFFF7CAFF182303FB39
:1050100006550446284602F075FB084B00229A55B7
:105020003CB1621E28460649BDE87040D31700F027
:1050300065B870BD1C050020400300205405002009
:10504000E14F000038B5EFF31185202383F3128878
:10505000BFF36F8F0F4B104A9C681068A04206D1B7
:10506000FFF7CEFF85F31188BFF36F8F38BD0021A6
:105070001B7C1160094AD35C002BF3D02046FFF75C
:105080008FFF0028EED0237CDB0601D1FFF7C8FD9F
:105090002046E5E71C0500203C05002054050020C3
:1050A000024B1868984208BF00207047700100202A
:1050B000034B1B680BB9FEF7CBBE0020704700BF47
:1050C0004405002030B570B10B4B5B6898420AD0A4
:1050D000036843B1D3E90421D0E90445121941EB37
:1050E0000501C3E90421D0E9003213605A600023AE
:1050F000C0E9003330BD00BF70010020B3F1FF3FB5
:1051000008BFB2F1FF3F2DE9F84F04469946154616
:105110001F467AD08160EFF31188202383F3128831
:10512000BFF36F8FB9F1000FDFF8E4A020DBFFF7CA
:10513000BFFFDAE90027013549F100092D1849EBD5
:10514000E073C4E90453AD18064643EB07074FF07C
:105150000109FFF7A5FFDFF8BCE0DEF804A0034675
:10516000EBB9C4E900EACAF80040CEF8044028E0F0
:10517000DAE900126FF001035B1A4FF0FF3161EBC7
:1051800002025B1B62EB0902012B72F10001BCBF42
:1051900001230022C0E904324FF00009D9E7D3E926
:1051A000041CD4E904208A4270EB0C0B24DA891A1F
:1051B0005A686CEB0000C3E90410C4E900321460C3
:1051C0005C60FFF76DFF84420ED1134B1B685BB927
:1051D000B9F1000F02D1FFF76BFF0646304602F02F
:1051E0007AFA0021FEF702FE88F31188BFF36F8F71
:1051F00028463946BDE8F88F521A60EB0C0053453B
:10520000C4E90420ADD01B68AAE700252F46EFE7CC
:105210005803002070010020440500202DE9F047CC
:10522000DFF8A890DFF8A880C9F800000246FFF771
:1052300037FF0D4600260027D8E900134FEAE27E2B
:1052400050B1D0E9044CA2427EEB0C0A1BDAA41A3E
:105250006CEB0E06C0E9044652184FF0000443EB15
:105260000E032046C8E90023C9F8004002F033FAD3
:105270002146FEF7BBFD85F31188BFF36F8FBDE8B4
:10528000F047FFF7DFBE611843EBE473C0E9046742
:10529000C8E90013FFF716FF01224FF00043C0E9F1
:1052A000042385F31188BFF36F8F83689847EFF36A
:1052B0001185202383F31288BFF36F8FD9F8002064
:1052C000121BC9F80020FFF7EBFEB5E744050020EC
:1052D0005803002010B5EFF31184202383F31288C4
:1052E000BFF36F8FFFF7E4FE054A0346D2E90001E2
:1052F000181841EBE37184F31188BFF36F8F10BD71
:10530000580300202DE9F04F8BB043680093837859
:105310009C078046924640F1F980002508780028D5
:1053200000F0F68025280AD04B1C01930135414638
:10533000009B98470028C0F2E3800199EEE74E7881
:105340008B1C252E0193F1D00027B9463C460A223A
:105350001F2C22D8A6F12003102B20D8DFE803F061
:10536000141F1F1A1F1F1F0B1F1F1F121F171F1F86
:10537000090044F00104019B13F8016B0193002E16
:10538000E6D13AE044F0020444F00404F3E744F0C8
:105390000804F0E744F01004EDE77F2C24D8A6F1D0
:1053A0003003092B08D860064EBF02FB073702FB0B
:1053B000093944F02004DEE72A2E0DD161065AF89F
:1053C000043B53D4002BA7BF44F020049946C3F1FB
:1053D000000944F02804CEE72E2E05D1630600F123
:1053E000978044F04004C6E76C2E2ED028D8682E53
:1053F00032D06A2E37D04C2E35D0002F46F0200305
:10540000B8BF24F04004A3F16502BCBFA4B20027DA
:10541000022A01D9612B2BD10AF1070A2AF0070AC7
:105420009C4E0AF1080A0727210760D506EB070BF7
:1054300034465C455DD1AE1BA219A9EB070959E1C1
:10544000742E98D07A2E96D0D7E7260648BF44F41B
:10545000007444F080048EE7E00548BF44F4007413
:1054600044F4807487E744F4207484E71F4682E79D
:10547000A6F16302122A00F2D880DFE812F01300CE
:105480004D00D600D600D600D6004D00D600D6007E
:10549000D600D600D600E800D100D600D6001A000B
:1054A000D600A0005AF8043B8DF81030012704AE56
:1054B000BAE75AF8046B784B002E08BF1E4614F06A
:1054C000400F14BF39464FF0FF31304602F06CF9FF
:1054D0000746A9E7009B41462020984700280FDB9C
:1054E000013CA742F6D34D442D1BA1469EE74C46F6
:1054F000F7E714F8010B009B41469847002898DA1B
:1055000098F8023043F0040388F802304FF0FF357A
:1055100028460BB0BDE8F08F220630D5A3052AD56A
:105520000AF1070A2AF007039A4659685AF8080B45
:1055300024F0100B00291FFA8BFB2FDA404261EB9D
:1055400041014BF4806B04AC0A23224602F038F987
:105550001BF0400FA0EB040200F08E802BF0010442
:105560009742A4B240F38F80002E40F08E802BF043
:105570001104A4B21DE05AF8040BC117D8E7E005E6
:105580005AF8041B01D40846F7E7A2054BBF48B2FE
:1055900008B241F3C01141F3C031C9E750EA010339
:1055A000D1D16306CFD5002FCDD124F01104A4B200
:1055B0003A463B4640F206410C4262D124E024F0D8
:1055C0001004A4B20A2314F0800243D014F4007132
:1055D0001FBF0AF1070A2AF007029246516814BF5A
:1055E0005AF8080B5AF8040B50EA01023ED124F095
:1055F000160B62061FFA8BFB3CD5002F3AD124F024
:105600001704A4B23A463B4621075AD4E10705D510
:10561000994572DDA9EB03039F184B469B464AE070
:1056200044F0100410237826CDE7782B04D1C6F17E
:10563000780343F01003C6E7009B414625209847B6
:105640000028FFF65DAF02354146304670E608237C
:105650000026B8E714F480715AF8040BC4D014F48F
:1056600000711ABFC0B2114680B2BDE724F0060433
:105670001FFA84FB04AC68E713465C46E10699D543
:105680002EB90133C0E71346F8E73B46F6E702338D
:10569000BAE700BF4B81000044810000CDE902322F
:1056A0004146009B202098470028FFF629AFDDE9FE
:1056B00002320BF1010BD945F0DCEB1A03EB0B05C1
:1056C0005B46E10627D5CDE902324146009B3020FA
:1056D00098470028FFF614AFDDE902327EB90135A4
:1056E0002F44791B8A4229DB144604AE9CBB2A4412
:1056F000A9EB03091546914442E017468EE7CDE930
:105700000232023541463046009B98470028DDE9C9
:105710000232E5DAF4E640F206410C42E0D014F041
:10572000020F14BF2B20202014F4806FCDE9023229
:1057300005F10105414618BF2D20E5E7CDE902320C
:105740004146009B302098470028DDE9023205F1F0
:105750000105C6DAD4E6013CCDE90232305D009B9A
:10576000414698470028DDE90232BFDAC8E6009BCF
:10577000414620209847002805F10105FFF6C0AEFC
:10578000A9EB0503002BF2DCD7E500BF30F00042A7
:1057900070B50146034604D1BDE87040012000F019
:1057A00045B8002803DABDE8704000F047B8B0F112
:1057B000FF4F02DBFAF7EAFC70BDB0F5000F2DDAFF
:1057C0004FF09841FAF7EAFD6FF018020346D8153A
:1057D0007F381044C60F00EBD070C3F31604FAF7FD
:1057E00089FD0546C6F17F0044EAC050FBF73CF94D
:1057F0000B4906462846FAF7D1FD0A4904463046C9
:10580000FAF7CCFD01462046FAF7C0FC06490446EB
:105810002846FAF7C3FD01462046CBE70022D6E72B
:10582000DB275435D95BDE3E80209A3E08B1024822
:1058300070474FF0FF407047000080FF08B502F04E
:1058400016F8014808BD00BF0000C07F7047012363
:1058500003FA01F103691B68194218BF82F00102C3
:1058600012B18368DB68184783681B69FBE710B5D2
:105870004FF4004C20EAE074002140F2E7304FF48E
:105880007A720023E4FB0C01FAF774FFBDE81040C4
:1058900001F0E8BEFFF7EBBF01F027BE08B501F04D
:1058A0006AFF4FF47A72A0FB020302FB0133C00BC4
:1058B00040EA434008BD08B5FDF726F908BD0020C1
:1058C00070477047704707B50023019301A800F0A7
:1058D00064FE18B1802003B05DF804FB00F082FE86
:1058E000019B03F00100990748BF40F002005A07EE
:1058F00048BF40F00400190748BF40F00800DA062E
:1059000048BF40F01000990648BF40F02000DA057B
:1059100002D540F04000DEE7002BDCD00028DAD1D1
:10592000D8E713B50024CDE900440821684600F00B
:1059300020FE032813DD00F108030DEB030010F82F
:105940000B4C10F80C3C240444EA036410F8093CA6
:105950001C4310F80A3C44EA032002B010BD204664
:10596000FBE708B50120FCF78BFB1FB50B468DF854
:105970000C0000920121002203A8FBF715FB05B0E3
:105980005DF804FB07B504220DEB0201FFF7EDFF04
:10599000019803B05DF804FB1FB560F07F008DF83F
:1059A0000C00009200230A4603A80121FBF7FCFA31
:1059B00005B05DF804FB07B501228DF807000DF175
:1059C00007010D20FFF7E8FF03B05DF804FB1FB5EA
:1059D00060F03F007F298DF80C00C8B281BF60F0F5
:1059E0007F00C9098DF80D008DF80E1098BF8DF855
:1059F0000D0000938CBF03210221002303A8FBF7B5
:105A0000D3FA05B05DF804FB07B501238DF8072034
:105A10000DF10702FFF7DBFF03B05DF804FB1FB5D4
:105A20007F294FF00003039384BF86238DF809304C
:105A300040F0400088BF10238DF808008CBF8DF81F
:105A40000A308DF80910009202A88CBF03210221B0
:105A500003AB0022FBF7A8FA039805B05DF804FB3E
:105A600013B502238DF80400002401AA04212D207F
:105A70008DF80540FFF7ABFF032206212D20FFF72D
:105A8000C3FF224606212D20FFF7BEFF04220A2174
:105A90002D20FFF7C4FF02B010BD0020FFF772BF3A
:105AA00007B50422ADF80410ADF806000DEB0201B5
:105AB0000320FFF771FF03B05DF804FB0A460146BF
:105AC0000920FFF769BF07B5252340F41710ADF88B
:105AD0000000ADF8023005220023694608208DF849
