:020000040800F2
:10000000801E0020A52A00088F560008912A0008AB
:10001000912A0008912A0008912A00080000000097
:100020000000000000000000000000006D2B000830
:10003000912A000800000000C12C00081D390008AA
:100040002D2D00082D2D00082D2D00082D2D000828
:100050002D2D00082D2D00082D2D00082D2D000818
:100060002D2D00082D2D00082D2D00082D2D000808
:100070002D2D00082D2D00082D2D00082D2D0008F8
:100080002D2D00082D2D00082D2D00082D2D0008E8
:100090002D2D00082D2D00082D2D00082D2D0008D8
:1000A0002D2D00082D2D00082D2D00082D2D0008C8
:1000B0002D2D00082D2D00082D2D00082D2D0008B8
:1000C0002D2D00082D2D00082D2D00082D2D0008A8
:1000D0002D2D00082D2D00082D2D00082D2D000898
:0400E0002D2D0008BA
:1000E8004FEA4102B2F1E04324BFB3F5001CDCF152
:1000F800FE5C0DD901F0004C4FEAC0024CEA50708A
:10010800B2F1004F40EB830008BF20F001007047B8
:1001180011F0804F21D113F13872BCBF01F00040BB
:10012800704741F480114FEA5252C2F11802C2F1ED
:10013800200C10FA0CF320FA02F018BF40F001006E
:100148004FEAC1234FEAD32303FA0CFC40EA0C0020
:1001580023FA02F34FEA4303CCE77FEA625307D15D
:1001680050EA01331EBF4FF0FE4040F44000704794
:1001780001F0004040F0FE4040F40000704700BF2E
:1001880080F0004002E000BF81F0004142001FBF44
:100198005FEA410392EA030F7FEA226C7FEA236C4D
:1001A8006AD04FEA1262D2EB1363C1BFD218414042
:1001B80048404140B8BF5B42192B88BF704710F0D8
:1001C800004F40F4000020F07F4018BF404211F07B
:1001D800004F41F4000121F07F4118BF494292EAE3
:1001E800030F3FD0A2F1010241FA03FC10EB0C000F
:1001F800C3F1200301FA03F100F0004302D549429C
:1002080060EB4000B0F5000F13D3B0F1807F06D348
:1002180040084FEA310102F10102FE2A51D2B1F140
:10022800004F40EBC25008BF20F0010040EA030035
:100238007047490040EB0000013A28BFB0F5000FB5
:10024800EDD2B0FA80FCACF1080CB2EB0C0200FA6B
:100258000CF0AABF00EBC25052421843BCBFD040BA
:100268001843704792F0000F81F4000106BF80F434
:1002780000000132013BB5E74FEA41037FEA226CF7
:1002880018BF7FEA236C21D092EA030F04D092F0C2
:10029800000F08BF0846704790EA010F1CBF0020F6
:1002A800704712F07F4F04D1400028BF40F0004053
:1002B800704712F100723CBF00F50000704700F073
:1002C800004343F0FE4040F4000070477FEA22629A
:1002D80016BF08467FEA23630146420206BF5FEA6B
:1002E800412390EA010F40F4800070474FF000036B
:1002F80004E000BF10F0004348BF40425FEA000C32
:1003080008BF704743F0964301464FF000001CE0D9
:1003180050EA010208BF70474FF000030AE000BF2F
:1003280050EA010208BF704711F0004302D540426D
:1003380061EB41015FEA010C02BF844601460020DF
:1003480043F0B64308BFA3F18053A3F50003BCFAFA
:100358008CF2083AA3EBC25310DB01FA02FC6344A7
:1003680000FA02FCC2F12002BCF1004F20FA02F2AE
:1003780043EB020008BF20F00100704702F12002A1
:1003880001FA02FCC2F1200250EA4C0021FA02F202
:1003980043EB020008BF20EADC7070474FF0FF0C07
:1003A8001CEAD0521EBF1CEAD15392EA0C0F93EA02
:1003B8000C0F6FD01A4480EA010C400218BF5FEAA4
:1003C80041211ED04FF0006343EA501043EA511117
:1003D800A0FB01310CF00040B1F5000F3EBF490011
:1003E80041EAD3715B0040EA010062F17F02FD2A15
:1003F8001DD8B3F1004F40EBC25008BF20F00100F8
:10040800704790F0000F0CF0004C08BF49024CEA0E
:10041800502040EA51207F3AC2BFD2F1FF0340EAA0
:10042800C250704740F400004FF00003013A5DDC11
:1004380012F1190FDCBF00F000407047C2F1000252
:10044800410021FA02F1C2F1200200FA02FC5FEA3F
:10045800310040F1000053EA4C0308BF20EADC7089
:10046800704792F0000F00F0004C02BF400010F4FB
:10047800000F013AF9D040EA0C0093F0000F01F0A8
:10048800004C02BF490011F4000F013BF9D041EACA
:100498000C018FE70CEAD15392EA0C0F18BF93EACC
:1004A8000C0F0AD030F0004C18BF31F0004CD8D1F6
:1004B80080EA010000F00040704790F0000F17BF7D
:1004C80090F0004F084691F0000F91F0004F14D0C3
:1004D80092EA0C0F01D142020FD193EA0C0F03D11B
:1004E8004B0218BF084608D180EA010000F000401E
:1004F80040F0FE4040F40000704740F0FE4040F4F9
:10050800400070474FF0FF0C1CEAD0521EBF1CEA97
:10051800D15392EA0C0F93EA0C0F69D0A2EB0302B5
:1005280080EA010C49024FEA402037D04FF080534F
:1005380043EA111143EA10130CF000408B4238BF14
:100548005B0042F17D024FF4000C8B4224BF5B1A22
:1005580040EA0C00B3EB510F24BFA3EB510340EA70
:100568005C00B3EB910F24BFA3EB910340EA9C001E
:10057800B3EBD10F24BFA3EBD10340EADC001B018E
:1005880018BF5FEA1C1CE0D1FD2A3FF650AF8B4232
:1005980040EBC25008BF20F0010070470CF0004C3F
:1005A8004CEA50207F32C2BFD2F1FF0340EAC2506A
:1005B800704740F400004FF00003013A37E792F02B
:1005C800000F00F0004C02BF400010F4000F013A89
:1005D800F9D040EA0C0093F0000F01F0004C02BF84
:1005E800490011F4000F013BF9D041EA0C0195E7ED
:1005F8000CEAD15392EA0C0F08D142027FF47DAF86
:1006080093EA0C0F7FF470AF084676E793EA0C0F75
:1006180004D14B023FF44CAF08466EE730F0004C73
:1006280018BF31F0004CCAD130F000427FF45CAF03
:1006380031F000437FF43CAF5FE700BF4FF0FF3C71
:1006480006E000BF4FF0010C02E000BF4FF0010CC4
:100658004DF804CD4FEA40024FEA41037FEA226C8D
:1006680018BF7FEA236C11D001B052EA530C18BFAF
:1006780090EA010F58BFB2EB030088BFC81738BF14
:100688006FEAE17018BF40F0010070477FEA226C02
:1006980002D15FEA402C05D17FEA236CE4D15FEAFE
:1006A800412CE1D05DF8040B704700BF8446084632
:1006B8006146FFE70FB5FFF7C9FF002848BF10F1F3
:1006C800000F0FBD4DF808EDFFF7F4FF0CBF012038
:1006D80000205DF808FB00BF4DF808EDFFF7EAFFC2
:1006E80034BF012000205DF808FB00BF4DF808ED7D
:1006F800FFF7E0FF94BF012000205DF808FB00BF72
:100708004DF808EDFFF7D2FF94BF012000205DF8F7
:1007180008FB00BF4DF808EDFFF7C8FF34BF012004
:1007280000205DF808FB00BF4FEA4002B2F1FE4F1F
:100738000FD34FF09E03B3EB12620DD94FEA00239B
:1007480043F0004310F0004F23FA02F018BF404274
:1007580070474FF00000704712F1610F01D142025B
:1007680005D110F0004008BF6FF0004070474FF00F
:100778000000704753B94AB9002908BF00281CBFB8
:100788004FF0FF314FF0FF3000F00CB8ADF1080C1E
:100798006DE904CE00F008F8DDF804E0DDE9022395
:1007A80004B07047704700BF2DE9F0478C468E466D
:1007B800154604461946089E002B40F0D080724525
:1007C80047D9B2FA82F74FB1C7F120030EFA07FCF6
:1007D80020FA03F3BD4043EA0C0CBC404FEA154E27
:1007E800BCFBFEF8A8B20EFB18CC08FB00F9230CE2
:1007F80043EA0C43994528D9EB1808F1FF3204D293
:10080800994502D9A8F102022B44A3EB0903B3FBD3
:10081800FEFC0EFB1C330CFB00F0A4B244EA0344BC
:10082800A04214D92C190CF1FF3304D2A04202D9EA
:10083800ACF102032C44241A43EA02401EB10023FF
:10084800FC4034607360BDE8F0874246DDE76346EC
:10085800F1E7002A79D0B2FA82F3002B3FD019468B
:10086800C1F1200302FA01F52EFA03F20EFA01FE95
:1008780020FA03F343EA0E034FEA154EB2FBFEFCDF
:1008880000FA01F4AFB20EFB1C200CFB07F81A0C9F
:1008980042EA004290455AD9AA180CF1FF3004D216
:1008A800904502D9ACF102002A44A2EB0802B2FB3F
:1008B800FEFC0EFB1C220CFB07F79BB243EA02432B
:1008C8009F4246D9EB180CF1FF3204D29F4202D95D
:1008D800ACF102022B44DB1B42EA004202E0AEEB21
:1008E800020301224FEA154EB3FBFEFCAFB20EFB2A
:1008F8001C330CFB07F8200C40EA034398452AD91F
:10090800EB180CF1FF3004D2984502D9ACF1020083
:100918002B44A3EB0803B3FBFEFC0EFB1C330CFBC0
:1009280007F7A4B244EA0344A74216D92C190CF1DC
:10093800FF3304D2A74202D9ACF102032C44E41BD2
:1009480043EA00400F46114678E71F2188E76046D2
:10095800ABE76246BFE76046DBE76346EFE7734510
:1009680006D916B9002108466DE7C6E9000EF9E771
:10097800B3FA83F787B9734501D3824207D8841A3B
:100988006EEB030301209C461EB900215BE7384645
:10099800FAE7C6E9004CF8E7C7F1200CBB4022FA99
:1009A8000CF51D434FEA15492EFA0CF3B3FBF9F881
:1009B8000EFA07FE20FA0CF141EA0E0100FA07F4DC
:1009C8001FFA85FE09FB183008FB0EFA0B0C43EAE8
:1009D80000439A4502FA07F240D9EB1808F1FF30B4
:1009E80004D29A4502D9A8F102002B44A3EB0A03CA
:1009F800B3FBF9F809FB183308FB0EFE89B241EA8C
:100A080003418E452CD9691808F1FF3304D28E456D
:100A180002D9A8F10203294443EA0040A0FB029846
:100A2800A1EB0E014145CE46434602D306D14C45C3
:100A380004D2B9EB020E68EB05030138002EA4D0EE
:100A4800B4EB0E0261EB030101FA0CFC22FA07F386
:100A58004CEA0303F940C6E9003196E74046C5E78A
:100A68004346D9E70000000030F000422DE9F84F76
:100A78000146034604D1BDE8F84F012004F066B9E9
:100A8800002803DABDE8F84F04F068B9B0F1FF4F69
:100A980003DBFFF77BFBBDE8F88FB0F5000F35DA15
:100AA8004FF09841FFF77AFC6FF018020346C3F342
:100AB8001604DE15764B7F3E234403F4000080F0D5
:100AC8007E5016444FF07E51204306EBD356FFF775
:100AD8005BFB704B04F10F0213400546002B3ED11F
:100AE8000021FFF7EFFD98B1002E00F0C8803046D6
:100AF800FFF700FC68490546FFF750FC67490446C4
:100B08002846FFF74BFC01462046C2E70022CEE705
:100B18005DA1D1E90001FFF7E3FA2946FFF73EFCA2
:100B280001464FF07C50FFF72FFB29460446284624
:100B3800FFF734FC01462046FFF730FC04460EB9A7
:100B480021466FE03046FFF7D5FB53490746FFF7CC
:100B580025FC064638465149FFF720FC72E04FF065
:100B68008041FFF713FB01462846FFF7CBFC81467F
:100B78003046FFF7BFFB494680464846FFF70EFC64
:100B880001468246FFF70AFC07464549FFF706FC7F
:100B98004449FFF7FBFA3946FFF700FC4249FFF7E3
:100BA800F5FA3946FFF7FAFB4049FFF7EFFA5146E5
:100BB800FFF7F4FB3E4982463846FFF7EFFB3D4915
:100BC800FFF7E4FA3946FFF7E9FB3B49FFF7DEFA9E
:100BD8003946FFF7E3FB01465046FFF7D7FADFF83F
:100BE800DCB0C4F55713A34403F5227343EA0B039F
:100BF800002B074630DD4FF07C512846FFF7CEFB2F
:100C08002946FFF7CBFB014604463846FFF7BEFAF4
:100C18004946FFF7C3FB074646B901462046FFF79A
:100C2800B3FA01462846FFF7AFFA34E71A494046B7
:100C3800FFF7B4FB194906464046FFF7AFFB3946B4
:100C4800FFF7A4FA01462046FFF79EFA2946FFF768
:100C58009BFA01463046E6E701462846FFF794FA34
:100C68004946FFF79BFB0446002E3FF469AF0A494B
:100C78004046FFF793FB0949064640466CE70020CB
:100C880009E700BFAFF30080555555555555D53F79
:100C980020FB4A00F0FF7F008071313FD1F7173702
:100CA8009788173E25333A3E2549923EABAA2A3FFC
:100CB8004FD01C3E298E633ECDCCCC3E305CCFFF5E
:100CC80003460A46F0B41979DB8800681343012506
:100CD800094A06699A43346808BF83F440238D4063
:100CE80023F48012DB0787684CBF2C43AC43346085
:100CF8003B68F0BC184700BF010010000122014BFF
:100D08001A7070476F05002038B5394C2378002BCE
:100D180065D1384804F0D7FF10B96FF0120038BD1C
:100D2800354804F0D0FF344D0028F6D0284604F0AA
:100D3800CAFF0028F1D0284604F0C5FF0028ECD0EF
:100D48002E4804F0C0FF0028E7D0284604F0BBFF77
:100D58000028E2D02A4804F0B6FF0028DDD04FF47E
:100D6800B0112848FFF7ACFF0028D8D126492748FA
:100D7800FFF7A6FF0028D2D14FF480312448FFF7AF
:100D88009FFF0028CBD14FF4B0112248FFF798FFFE
:100D98000028C4D11C492048FFF792FF0028BED183
:100DA80019491E48FFF78CFF0028B8D11C4B1D4A73
:100DB800536008239360AB68DB6993B1012228462E
:100DC800184998470028AAD101F0C4FF01F0D6FFBE
:100DD80004F086FC144B186030B101232370002006
:100DE8009DE76FF057009AE76FF0040097E700BFA0
:100DF8006E050020446100080C610008D4600008FA
:100E0800F060000894630008200001008C6300086B
:100E1800846300087C630008746300086C6300083E
:100E2800050D00087402002070020020084B421EC5
:100E38009A4209D20749084A084B884298BF134684
:100E4800074A0020136070476FF01500704700BF15
:100E580000127A0080841E00506300083463000882
:100E6800000000202DE9F04389B0109F0E4601EBE9
:100E7800070814461D460146002845D0731E022B5C
:100E880042D80AB1002D3FD1B8F1820F3CD8DFF823
:100E980080903246484605F031F83A46214606EB3E
:100EA800090044B305F02AF8012302AACDE9009805
:100EB800CDE90623DFF85C90174ACDE9029811685E
:100EC800CDF810D00593CDB1DFB9B8463B461348ED
:100ED8008268146804AAA047044640B9B8F1000F14
:100EE80005D03A46284609EB060105F007F82046E2
:100EF80009B0BDE8F08305F00FF8D5E7A8462B4602
:100F0800E5E7984606ABE2E76FF01504EFE700BFA8
:100F1800EC0400206A04002000000020446100085E
:100F280002460421014803F022BF00BF0C610008FB
:100F380008B508490848FFF7C3FE022003F027FF59
:100F48004FF480310448FFF7BBFEBDE8084032206B
:100F580003F01DBF06001A008463000800220C4B32
:100F680010B41A700B488268036994696CB11B68E5
:100F7800A44613F0080F14BF4FF000734FF08063BE
:100F88004FF0A072032110BC604710BC704700BF2F
:100F98006F0500200C61000813B5094804698368CF
:100FA80001A95B68984720B9236801985840C0F3A5
:100FB800C0000028D4BF0020012002B010BD00BF2F
:100FC8000C61000802484FF4005183685B691847B8
:100FD800D460000802460D21014803F0C8BE00BFD6
:100FE800D460000810B503F0E5FE044602F064FD85
:100FF800444003F015FF604080EA10430148584020
:1010080010BD00BFB979379E2DE9F34105460E465C
:1010180017461C46BDF820800120FFF781FF2346B4
:101028003A4631462846CDF80080FFF71BFF48B105
:10103800074A13680133136024B142460021204651
:1010480004F06AFF002002B0BDE8F041FFF768BF76
:101058008002002010B504460020FFF761FF084811
:101068006043FFF7E3FE40B9064B1C7003F092FFA4
:10107800054BC31A5842584110BD0020FCE700BF79
:1010880040420F00A40000203001CADE08B5082045
:10109800FFF7E0FF30B90220FFF7DCFF20B9034B70
:1010A800187008BD0820FCE70220FAE7A400002019
:1010B800F0B587B0FFF728FE044620B16FF00105B0
:1010C800284607B0F0BDFFF72BFF2046FFF782FF49
:1010D8004848FFF7ABFE05460028EFD10227464BEC
:1010E8001F70FFF725FF03F055FF444B98427DD151
:1010F800012676232A463946ADF8143005A80DF1A5
:101108000B0300968DF80B50FFF77EFF9DF80B2020
:101118003B4C22F0030229463620324303F0F3FE0B
:1011280014222946204604F0F7FEFF231E202374CC
:1011380003F013FF00F01F03000A607304202373F9
:1011480003F00BFFA060062003F007FF20600720D4
:1011580003F003FF6060082003F0FFFEA07309207E
:1011680003F0FBFE274BE0735B79A674A3B1237AE7
:101178002BB13A4612212D2003F0C5FE6674267B5A
:101188000E21002E08BF102606F01F022B2042F069
:10119800600203F0B8FE267440F2013303AAADF8EA
:1011A8000C3000210223362003F090FE4FF4004358
:1011B80004AA0621ADF810302D20022303F086FE84
:1011C800052003F0EBFD4FF4007305AAADF81430C9
:1011D80000210223362003F079FE04220021242076
:1011E80003F091FE022003F0D9FD69E74FF0FF35C7
:1011F80066E700BF80841E00A40000203001CADE1C
:101208000400002018000020084A1379022B0AD095
:10121800032B06D0012B0CBF4FF048304FF01E3087
:101228007047906870470248704700BF1800002058
:101238004828080E034B04481B79022B08BF4FF4BB
:10124800905070471800002000120400014B1888C5
:10125800704700BF1800002013B50A4B01A95C882D
:101268001B8802221820ADF8043003F014FE022374
:1012780041F604012E2001AAADF8044003F026FE31
:1012880002B010BD1800002013B5FFF7D3FF4FF4CC
:1012980090530422ADF800300023000C69468DF805
:1012A800020010468DF8033003F0F5FD48F6700390
:1012B8006A4604212320ADF80030022303F006FE1D
:1012C8005E4B6A460C2123200093042303F0FEFDA5
:1012D80035236A4612212320ADF80030022303F09B
:1012E800F5FD0123ADF8003002236A461946272090
:1012F80003F0ECFD872320246A4604212720ADF85B
:101308000030022303F0E2FD02236A46062127206B
:10131800ADF8004003F0DAFD494B6A460821272062
:101328000093042303F0D2FD8123214628246A4632
:101338002720ADF80030022303F0C8FD02236A46D7
:1013480026212720ADF8004003F0C0FDD8220B214C
:10135800204603F0D8FD3B4B6A460C2120460093FB
:10136800042303F0B3FDC0220B212A2003F0CBFD98
:10137800354B6A4607212B200093042303F0A6FD72
:10138800BE220B212B2003F0BEFD304B5B792BB125
:101398006D2240F606012E2003F0B5FD41F20763E9
:1013A8006A4641F606012E20ADF80030022303F00C
:1013B8008DFD274B042269461F20009303F06BFD27
:1013C800FFF74AFF44F28E236A4642F604012E20B4
:1013D800ADF80030022303F079FDFFF715FF6946E9
:1013E800042200901E2003F056FD002304226946C3
:1013F8001A20009303F04FFD052003F0CFFC03F003
:10140800D1FC044603F0CEFC031B632B03D94FF039
:10141800FF3002B010BD0F2003F033FD830703D463
:10142800012003F0BBFCEDE70A4B0E2004226946BD
:10143800009303F030FD0020EBE700BF07A9022569
:101448002D001A31E03F1E001D040008180000207E
:101458005500042180D037242DE9F041078804463F
:10146800002F3AD04088FEF741FF8046A088FEF75B
:101478003DFF0646E088FEF739FF414605464046EF
:10148800FEF78CFF314604463046FEF787FF0146DB
:101498002046FEF77BFE294604462846FEF77EFFD7
:1014A80001462046FEF772FE00210446FFF71EF9AA
:1014B80098B93846FEF71AFF0146FEF76FFF014656
:1014C8002046FFF71FF803F0F1FB0549FEF766FF1A
:1014D8000449FEF759FEBDE8F0810348FBE700BF69
:1014E800000020413D8AE3420000F0C238B50346BF
:1014F8000088E8B15C89DCB1FEF7F8FE05462046B5
:10150800FEF7F4FE4FF09041FEF748FF29460446E7
:101518002846FEF743FF01462046FEF7F3FF03F097
:10152800C5FB0449FEF73AFF0349FEF72DFE38BD17
:101538000248FCE7000020413D8AE3420000F0C277
:1015480007B5074B694618681B79009005220F20DC
:101558008DF8043003F09FFC03B05DF804FB00BF76
:101568000265000807B5074B694618681B790090A3
:1015780005220F208DF8043003F08DFC03B05DF8D0
:1015880004FB00BF2C63000830B585B003F002FDF2
:10159800434C444D041B4FF0040018BF012403F0D2
:1015A80070FC0246FFF746FE82424FF01F0018BF4C
:1015B80044F0020403F065FC3B4B022298424FF0D2
:1015C80020014FF0270018BF44F0040403F0A6FCE4
:1015D800042281284FF008014FF0270018BF44F07B
:1015E800080403F09BFC314B98424FF01E0018BFD3
:1015F80044F0100403F045FC0146FFF705FE022203
:1016080081424FF0180002A918BF44F0200403F0EB
:101618002BFC2B88BDF8082003219A4248F26E4320
:10162800ADF80C304FF030038DF80E304FF0020358
:101638004FF00002009303A802AB18BF44F0400427
:10164800FFF7E2FCBDF808306A889A426B7918BF48
:1016580044F08004CBB1012240F606012E2003F0AD
:101668005DFC134D6D282B7C18BF44F48074FF2B50
:101678000BD001220E212B2003F050FC2B7C00F014
:101688001F00984218BF44F400740E2003F0F9FBC1
:10169800084B984218BF44F48064204605B030BD1A
:1016A8003001CADE18000020550004212D001A312F
:1016B8000400002080D03724044B1968002903DB7C
:1016C80003488368DB681847704700BF2400002080
:1016D800606100082DE9FF4103F074FB10F00C0F66
:1016E8002C4C2D4A2D4B05D12168914202D1A1687D
:1016F800994201D00021616022604FF6FF72A36019
:10170800A388274D93421CBF0133A380286003F0B0
:1017180087FBA38868602B81E3880024AB81FFF7EF
:1017280061FC2C74688103F03DFB1E4B18601E4B56
:1017380018601E4B0FCB8DE80F001D4E304604F08D
:10174800C2FA014628B96FF01200A97304B0BDE8C7
:10175800F081D6F8088069463046D8F808309847AE
:10176800144F0028386001DA0021EEE703213046E3
:10177800D8F80030984710F1860F04D1214630463A
:10178800D8F8003098470028EED13968C943C90F06
:10179800DBE700BF801E002048425755B7BDA8AA06
:1017A800900200208C020020880200201C630008A0
:1017B800606100082400002008B503F0F3FA014B2B
:1017C800186008BD8C02002010B503F0EBFA0B4B33
:1017D80004461B68C31AB3F5FA7F01D2FFF76CFF02
:1017E8000749CB8843B1074AD37B2BB94EF6602013
:1017F800844284BFCB80938110BD00BF8C0200203F
:10180800801E0020900200202DE9F047074603269D
:101818004FF00A09204CDFF884802174FFF74CFF51
:101828005FB1B847054640B96369E0730133636146
:10183800FFF7C2FF2846BDE8F087A36938F8025BC6
:101848000133A361D5B9013EFFF736FF16F0FF0655
:10185800E4D1134DEB88022B03D80133EB8003F05E
:10186800FFFA0123E373EB886FF00405A38103F00B
:1018780099FA0C4B1860FFF79FFFDBE7642DAA4627
:1018880028BF4FF0640AFFF717FFAAFB090104F00D
:10189800A9FAA5EB0A05D5E790020020FC64000828
:1018A800801E00208402002010B503F07BFA044655
:1018B800FFF782FF064BD87B48B142F20F71054A09
:1018C8001368E31A8B428ABF01200020146010BD00
:1018D800900200208402002008B503F063FA054A4C
:1018E8001368C31AB3F57A7F2ABF1060002001205D
:1018F80008BD00BF88020020044BDA695862013233
:10190800DA6110B11A6A01321A6270479002002037
:1019180038B5054D44B295F90030A34202D0FFF71F
:1019280059FB2C7038BD00BFA5000020014610B53A
:101938000748FFF769FF044640B9FFF7E9FF20466B
:1019480003F03FFA00F04AF9012010BD0020FCE73F
:10195800BD1B00082DE9F04F85B0FFF7D5F958B148
:1019680003F02CFA28B103F02BFA962003F026FD99
:10197800F6E7FFF727FBF8E703F023FA0324012033
:10198800FFF7C6FF782003F019FD0020FFF7C0FF1E
:10199800013C782003F012FD14F0FF04EFD103F0AE
:1019A800E6FBFFF797FE00F0EFF828B903F0DDFB40
:1019B80003F043FD012407E00120FFF7B7FF0446C9
:1019C80003F0D3FB002CF3D1DFF85481554ED8F83F
:1019D800009000F01BF9009003F0E4F9A0F57A7A82
:1019E8000746D346F269336CD318019333680293E0
:1019F80003F0D8F9054603F0BBFB18B14FF001021C
:101A0800494B1A70002C5BD0002003F0DAF900F083
:101A180003F9D8F800304B453BD00220FFF786FF8A
:101A28000446D8F8009000F0F1F8009B984204D0E2
:101A380000F0ECF80090FFF7BFFE24B3326CF369B6
:101A480002991344019A9A4218BFAA4632688A42F8
:101A580018BFAB46A5EB0A01B1F57A7F5DD3A5EBBC
:101A68000B01B1F57A7F4DD24FF4FA71B5FBF1F164
:101A7800C94301F0010003930192FFF749FF019A5E
:101A8800039B02920193FFF79FFE0A2004F0F6F8E9
:101A9800AEE700F0A9F80028C5D000F0ABF8FFF7D2
:101AA8001BFF0028BFD0FFF76FFD8146FFF724FF1B
:101AB800484600F0A5F8B9F1000FB2D00320ADE711
:101AC80003F07CF988B12046FFF722FF012003F0DC
:101AD80078F9FFF7E9FE04460028D4D00120FFF783
:101AE80025FFD8F800900446A7E7EB1B952BF0D903
:101AF8000E4B2F4693F90000013818BF0120FFF75D
:101B080007FFE6E74FF4FA61B5FBF1F001FB10506F
:101B180031288CBF00200120ADE70120ABE700BFD2
:101B280080020020C80200206F050020A5000020C8
:101B380010B50C49FEF732FC4FF047410446FEF75A
:101B4800E9FD48B120460849FEF7E4FD30B92046D2
:101B5800FEF7EAFD00B210BD0448FCE747F6FF7047
:101B6800F9E700BF0000C84200FEFF460080FFFF03
:101B780008B5034B187003F015F9024B186008BD3F
:101B8800770500204403002010B503F020FC04462C
:101B980048B901462822054804F0BEF94C222146DE
:101BA800034804F0B9F9204610BD00BF1C0300200B
:101BB800C802002010B503F00AFC0022054B0446B9
:101BC8001A700122044B1A7008B903F036FC20463B
:101BD80010BD00BF6F050020730500200122014BD6
:101BE8001A70704773050020014B1878704700BFC2
:101BF800740500200022014B1A70704774050020FC
:101C0800014B1860704700BF14030020014B18688F
:101C1800704700BF180300202DE9F04FC1B003F052
:101C2800C1F8684BDFF8A0A11A78002A3BD1674BAE
:101C38001B68C01A9AF80030052B00F22184DFE8EF
:101C480003F0031A121A1A2AC82840F21984604AA3
:101C5800536B013353635F4A1368013313600122E6
:101C68005D4B1A7012E0052840F20A84584A9369BD
:101C780001339361F3E70A2840F20284574A136A52
:101C880001331362524A13690133136141B0BDE84D
:101C9800F04F03F0C6BB052840F2F2834C4A536C60
:101CA80001335364DBE700221A704A4A1368013390
:101CB800136003F018FA9AF80030052B00F26C81D3
:101CC800DFE813F0060060030600D4038F03060064
:101CD800434B034009D100F4C842A2F5C8421A4355
:101CE80011D000F4005018431FD0394C636A0133F7
:101CF800636203F0E2F903F0E9F9A36A0133A3622E
:101D080003F088FB13E0402120A803F081F94DF689
:101D1800CA620646014608AB20A803F033FA10BB96
:101D28002B4AD36A0133D362EAE7FFF71BFC9AF820
:101D38000030022B02D0052B40F0A28303F032F8CA
:101D4800224B1B68C01A052840F29A839AF8003083
:101D5800052B1F4B0BBF5A6C9A69013201320CBF1D
:101D68005A649A6192E79DF82830212B40F010823E
:101D7800BDF82620002A40F00B8231460BAA20A885
:101D880003F0C3FA0028CBD09DF82C20BDF82430EE
:101D9800022A40F23D814FF6FF72934201D0062B92
:101DA800BED106219DF82F0003F0F3FA041E084D5A
:101DB800DFF830B018DAEB6B0133EB6300238BF8F4
:101DC80000309DE76F0500207705002044030020C0
:101DD800C802002018030020740500201C030020FE
:101DE800009037247205002004A803F02CF904A8F9
:101DF80003F0E9FABDF82620724B4FF000091A806B
:101E08000322714BBDF830601A709DF82D206F4B7E
:101E180080461A704A462B68029101332B60AB6BDF
:101E28000133AB63BDF83230E4FB03623404241899
:101E380041EB1646FFF70AFA6FF30804071906F094
:101E4800FF0646F1000303F0FF030393039A604B78
:101E58001F605A609DF83630062B2CD140F601439E
:101E6800DFF870E1CDE915395B4B5C4ACDE918E341
:101E780001238DF868301388CDF85C908DF86930AF
:101E88001B0A8DF86A3053884FF022098DF86B30A1
:101E98001B0A8DF86C3013798DF86D30504B1B8907
:101EA800ADF86E304F4B1C9344F62C43ADF87430AC
:101EB8002B6A01332B624C4B4C4A1B781268003B4F
:101EC80018BF01235B000AB143F004039BF800200C
:101ED8000AB143F00803464A12780AB143F01003E6
:101EE80003228DF8403015AB1193424B8DF8382002
:101EF8001B789DF82D208DF848303F4B8DF8392000
:101F08001B68A7EB080213933C4B0F921B8830A861
:101F1800ADF850303A4B8DF841901B88ADF85230EF
:101F2800384B19784A1C1A700EAB019306234DF6EC
:101F3800CA620093BDF8263003F042F900238146B7
:101F4800220A8DF81920220C240E8BF800308DF807
:101F580018308DF81A208DF81B408DF81C60FFF79B
:101F6800EFFA06A803F042F8494630A803F023F830
:101F780009F1020080B203F023F80023184603F0A9
:101F8800BEF81B4B58B101221A701F4A136801335F
:101F98001360EB680133EB6003F043FAC7E618708F
:101FA80004201A4B9DF82D20C3F808801A70BDF83C
:101FB80034205A80029AC3E90327039A5A61FFF72B
:101FC800D7FDB4E668040020A600002075050020AF
:101FD800D00000200000020C17F132761800002013
:101FE8009002002003041F727305002014030020D0
:101FF8007005002071050020C0020020A20000200A
:10200800A000002076050020C4020020D80000208F
:10201800062B7FF475AE8F4803F015F8BDF826201F
:102028008D4B8E4D1A809DF82C208D4B9DF82D10D0
:102038001A708C4B012A19702B68864803F101032A
:102048002B6082BF6B6801336B6003F0BCF910F141
:10205800966441F100068046FFF7F8F86FF308042C
:1020680003199DF82C9006F0FF0646F100027E4801
:1020780002F0FF02B9F1010F4FF00001C0E9003290
:10208800A3EB080840F282809DF82E7017F0010734
:102098002AD040F60143DFF8D4C1CDE91531744B9D
:1020A800744ACDE918C301238DF8683013882227B4
:1020B8008DF869301B0A8DF86A30538817918DF8AE
:1020C8006B301B0A8DF86C3013798DF86D306A4BC4
:1020D8001B89ADF86E30694B1C9344F62C43ADF860
:1020E80074302B6A01332B621A2200210DF13A0059
:1020F80003F012FF9DF82D30614A8DF83930614B9D
:1021080012681B788DF83890003B18BF0123CDF872
:102118003C805B000AB143F004038DF8403015ABF6
:102128001193594B30A819788DF841704A1C1A70D0
:102138000EAB019306234DF6CA620093BDF8263014
:1021480003F03EF8002307468DF81830230A8DF86F
:102158001930230C240E8DF81A308DF81B408DF899
:102168001C60FFF7EDF906A802F040FF394630A8D9
:1021780002F021FFB81C80B202F022FF012002F019
:10218800BEFF00287FF401AF012018E70F46ABE738
:102198009AF80020314C052A40F08680232B17D16D
:1021A8004FF6FF72BDF82430934201D0062B0FD1B1
:1021B800294BBDF826201B889A4209D131460EAA20
:1021C80020A803F0D3F818B19DF83830032B03D0BA
:1021D800E36A0133E36293E52C4D9DF839202B78AF
:1021E8009A4203D0236B0133236389E515A802F0D3
:1021F8002AFFFFF7A5F902F0FEFE2A78244B15A85E
:102208001A7003F0E0F82B69224EC01A224B234DB6
:1022180018604FF4004330A833802B8002F01DFF74
:1022280030A8FFF719F9FFF783FC308030A8FFF7D3
:102238005DF9FFF77DFC0122194B28801A7063694C
:10224800002013446361236C13442364154B1A70F4
:10225800B5E600BF2403002068040020C80200205F
:10226800A600002075050020D00000200000020C08
:1022780017F13276180000209002002003041F7224
:10228800140300207305002076050020D8000020E4
:1022980071050020A2000020C0020020A00000203C
:1022A8007205002074050020022A91D1232B8FD1BA
:1022B800BDF82430062B8BD1734DBDF826202B8812
:1022C8009A4285D131460BAA20A803F04FF800287E
:1022D8003FF47EAF6D4F9DF82C203B7893427FF4FE
:1022E80077AF012B6A4E05D99DF82D2033789A4295
:1022F8007FF478AF63690EA80133636102F0A3FE2F
:102308000EA803F060F80246624803F05CF8121A5F
:1023180016924FF080223B783178012B8DF854309B
:102328008DF85510179210D930A802F096FE30A8F3
:10233800FFF792F8FFF7FCFBADF85C0030A8FFF759
:10234800D5F8FFF7F5FBADF85E00534B30A81978C8
:102358004A1C1A7015AB0193062300934DF6CA6206
:102368002B8802F09CFF0446FFF7EAF8214630A8C4
:1023780002F021FEA01C80B202F022FE02F033FE21
:1023880003201CE607067FF507AE424802F060FE10
:102398004248434AC3690D300133C0F80F3093688F
:1023A8000133936003F00FF83E4AD2E90032C01AB5
:1023B80061EB02013C4A01F0FF030E06106048BFC2
:1023C800A3F58073053043F100030B2873F1000374
:1023D80021BF364A136801331360FFF7C3F80220A0
:1023E800EDE505067FF5D8AD2A4802F031FE29480B
:1023F80002F0E9FF2B4A2A4DD2E90034C31A61EBF7
:10240800040404F0FF022406274C48BFA2F580729A
:102418002360053342F100020B2B72F1000228BF42
:10242800224A234C28BF1368C4E9040124BF01339E
:1024380013601A4AD3690133D361AB680133AB60C7
:10244800FFF77EF8D4E902014FF48033B0F530008D
:10245800628841F1FF31E2FB0301C9B202F062FE7A
:1024680010B1AB6C0133AB640520A8E5030641BF8E
:102478000B4AD3690133D36101220E4B1A708BE5E5
:1024880041B0BDE8F08F00BF68040020A60000201E
:102498007505002029030020760500201C03002074
:1024A800C8020020D0000020BC020020B802002092
:1024B800D800002074050020014B1B68184700BF96
:1024C8002800002030B5044685B00D4610220021B2
:1024D800684603F021FD02238DF80230044B2A469A
:1024E80021466846019302F09FF905B030BD00BF50
:1024F800C124000880B505460E461746984601F0E7
:102508003DFF034600F020FC0446DFF818904246E1
:1025180049F8003039463046A84754F8090000F019
:10252800B5FB00BF08000000044608B5EFF31183AF
:10253800102383F31288BFF36F8F03F08CFB2046C0
:1025480000F0CEFA024802F0F1FF03F0BCF8FCE715
:1025580008650008074B00205A6822F001025A60FB
:102568005A6822F002025A605A6822F004025A603D
:10257800704700BF002004E008B5416805480C31E9
:1025880083681B681BB1984700EAE07008BD6FF0CC
:102598005700F9E780600008192810B502D900240F
:1025A800204610BD044B53F82040204603F08BFB17
:1025B8000028F5D1F3E700BF00640008044A136857
:1025C80043F010031360034B034A1A60704700BFBF
:1025D800002002409000002000127A0008B504484C
:1025E80002F0A4FF034802F0A1FF002008BD00BFCD
:1025F80077650008AC65000808B50348034A002160
:10260800121A03F038F808BDD00000207C0500201D
:10261800074808B5074A0849121A03F02EF8BDE81A
:1026280008400648064A0749121A03F026B800BFB0
:1026380000000020CC000020446A000800000020B0
:1026480000000020446A000838B505460C4699B1D8
:10265800D1E901230F48096802F068FFD4E904238F
:10266800E1680D4802F062FFE1690C4802F05EFF84
:10267800A1690B4802F05AFF012D05D1EFF305813E
:102688000848103902F052FF21462846BDE8384074
:1026980001F0F2BAD9650008096600083966000831
:1026A800496600087866000830BFFFF7FDBF00BF25
:1026B8002DE9F04105460B4EDFF82C80324606EB3B
:1026C8000807CC1B2046094903F018FCA01942460C
:1026D8000021083C03F020FC6C6607F10800BDE807
:1026E800F08100BF00000000040000001C63000827
:1026F80010B51D4C1D4802F019FFA36A990130D589
:102708001B4802F013FF1E20A36ADA0103D51948FB
:1027180002F00CFF1F20144CA36A1B0303D51648B4
:1027280002F004FF2120A36A590303D5134802F0DD
:10273800FDFE22200C4CA36A9A0303D5104802F030
:10274800F5FE2320A36ADB0303D50E4802F0EEFE54
:102758002420054A936A6FEA03436FEA134393629E
:1027680010BD1D20D0E700BF00ED00E08C6600081A
:10277800A5660008B9660008D4660008F366000874
:10278800196700083467000870B5204C06462048D1
:102798000D4602F0CBFEA36AD90435D51D4802F0D8
:1027A800C5FE1720A36A1A0503D51B4802F0BEFE12
:1027B8001820164CA36A9B050FD5184802F0B6FEE0
:1027C800A16BA36A180407D5154802F0AFFE1EB125
:1027D800A36A23F40043A36219200C4CA36A5A0588
:1027E80003D5104802F0A2FE1A20A36ADB0503D520
:1027F8000D4802F09BFE1B20044A936A43F47F4372
:10280800936200232B7070BD1620CBE700ED00E02B
:102818006067000877670008896700089D670008F7
:10282800B7670008CD670008E967000870B51F4C56
:1028380006461F480D4602F079FEA36AD90632D52E
:102848001C4802F073FE1120A36A1A0703D51A4820
:1028580002F06CFE1220154CA36A9B070FD517488F
:1028680002F064FE616BA36A180607D5144802F0EB
:102878005DFE1EB1A36A23F08003A36213200B4CF4
:10288800A36ADA0703D50F4802F050FE1420A36AA2
:10289800064ADB0658BFA36A936A43F0FF039362B4
:1028A80000232B7070BD1020CEE700BF00ED00E0C4
:1028B8000268000819680008896700084D68000860
:1028C800666800087D6800082DE9F0415D4B044604
:1028D8005F6800258AB0C7F3080685F31188BFF33F
:1028E8006F8F02F07F43B3F17F4F06D102F00C03E4
:1028F800082B13D1544802F019FE00252C464FF03E
:102908000008F31E8DF80780092B00F28B80DFE8A2
:1029180003F00A7F837B89898989898710074CBFDF
:102928000C460125EBE74948464E02F0FFFD8DF8BD
:102938000780F36A9A0704D5454802F0F7FD00239B
:102948002AE0F36A002B01DA4248F6E7F36A5B00F3
:10295800F5D5414802F0EAFD7369A26943F4807332
:102968007361BFF34F8FBFF36F8F32F8023C726908
:1029780022F480727261BFF34F8FBFF36F8F03F43D
:102988007F42B2F55F4F27D1DBB2022B24D12168F9
:10299800324802F0CBFD23689DF80720CAB902AE81
:1029A80004F12007324620686168083403C2BC423B
:1029B8001646F7D1099A002D40D0C2F3080121B973
:1029C8006FEA52226FEA42220992184602A9FFF7DB
:1029D8003BFE0AB0BDE8F0811A4B9A6AD2B22AB11E
:1029E80001200DF10701FFF721FF0FE09A6A12F4A9
:1029F8007F4F05D001200DF10701FFF7C5FE05E067
:102A08009B6AB3F5803F9AD3FFF772FE0346C3E78C
:102A180000200DF10701E6E700200DF10701ECE7C2
:102A28000F488AE70F4B17F4F87F0F490F4808BF84
:102A38001946A6F1100202F079FD80E76FF308024B
:102A4800C2E700BF00ED00E0CB680008F7680008A7
:102A58000F690008316900084069000860690008CA
:102A68007D6900089D680008B2680008A26900082E
:102A7800044B5A6942F010025A615A6922F008025E
:102A88005A61704700ED00E0EFF30880EFF3098129
:102A980001B57246FFF718FF01BD00BF002080F3A3
:102AA8001488BFF36F8F0C4880F3088800F02AF869
:102AB800102080F3118809484FF40061401880F312
:102AC8000988EFF314800221084380F31488BFF3C8
:102AD8006F8F02F0E3FD0000801E002080050020BB
:102AE800BFF34F8F0549064BCA6802F4E0621343EF
:102AF800CB60BFF34F8F00BFFDE700BF00ED00E0E4
:102B08000400FA0572B6002383F313884FF0FF32EE
:102B1800134BC3F88020C3F88420C3F88820C3F877
:102B28008C20C3F89020C3F89420C3F89820C3F8E9
:102B38009C20C3F88021C3F88421C3F88821C3F8F6
:102B48008C21C3F89021C3F89421C3F89821C3F8C5
:102B58009C2162B6BFF34F8FBFF36F8F704700BFE2
:102B680000E100E01EF0040F0CBFEFF30880EFF364
:102B78000980816911F8021C0229FFD001B572464B
:102B880002F07DFD01BD00BF40B2002807DB012334
:102B98004109034A00F01F00834042F82130704782
:102BA80000E100E040B2002801F10101ACBF00F1F2
:102BB8006040064B4FEA0111C9B2ABBF00F5614056
:102BC80000F00F0080F800131954704714ED00E06E
:102BD800054B064A23F0404323F07F039360BFF37D
:102BE8004F8FBFF36F8F70470000000800ED00E0C3
:102BF80042F8203C009B0B4942F81C3C019B21F009
:102C0800010142F8183C029B42F8081C42F8143CA7
:102C18004FF0807342F8043C0023203A0265836633
:102C2800704700BFFD24000800B50B4B154698609F
:102C3800426E0A4B0E461A602C4686F3098800201D
:102C4800034B98472046002100220023014C2047CF
:102C5800C1560008FD2400083C0400209803002009
:102C68001022014B1A61704700ED00E0054B5A69CC
:102C78009B689A421FBF044A536843F080535360CD
:102C8800704700BF3C04002000ED00E0084B9B6843
:102C980083420BD1EFF3058343B1064B5A6842F0E8
:102CA80080525A605A6A22F400425A6201F06CBBA0
:102CB8003C04002000ED00E011498A684FF0300024
:102CC8001044EFF3098C80E8F01F102080F312887D
:102CD800BFF36F8F0B4F4FF000664A698A603E6002
:102CE800506E094C2060906E0023936680F3118823
:102CF80002F1300090E8F01F8CF30988704700005B
:102D08003C04002004ED00E098030020002310217B
:102D18000348C2180133292B82F80013F9D17047F0
:102D280000E100E008B5EFF30583064A103B02EB2B
:102D3800C30152F8330049688847BDE80840FFF7E7
:102D480095BF00BF7C61000801480068704700001B
:102D580098030020074AD2F8FC3043F08073C2F889
:102D6800FC300022044B5A601A6842F001021A60D3
:102D7800704700BF00ED00E0001000E00022034BA8
:102D88005A601A6842F001021A607047001000E0A9
:102D9800014B002158687047001000E008B506494B
:102DA800064821F00701C1F1005202F5A04202F0E5
:102DB8007AFB002008BD00BF931E00209C03002062
:102DC8001F2809D8012303FA00F0044B5B699843D4
:102DD8000CBF01200020704700207047000401400C
:102DE800012300F01F021F2803FA02F39DBF034AC4
:102DF800002053616FF01500704700BF00040140C8
:102E0800044B1844002301338B4200F8012BFADBF2
:102E1800704700BFA70000202DE9F04105460026B5
:102E28004FF001080E4F6B78F4B2A34201D8BDE809
:102E3800F0812B781C442046FFF7C2FF68B120467A
:102E4800FFF7CEFF57F834303BB107EBC40204F06C
:102E58001F04516808FA04F098470136E3E700BFF9
:102E6800A8030020034660B1B0FA80F2C2F11F0245
:102E7800D2B205498856054A11680B431360FFF71B
:102E880083BEFF22F5E700BFA70000200004014031
:102E9800024A136823EA00031360704700040140E4
:102EA800032921D8DFE801F0020C10190F4B9A68AA
:102EB80022EA00029A60DA6822EA0002DA607047C1
:102EC8000A4B9A680243F5E7084BDA680243DA606E
:102ED8009A6822EA00029A607047044B9A68024393
:102EE8009A60DA681043D860704700BF0004014058
:102EF80030B5B0B1B0FA80F3C3F11F03DBB20B48B1
:102F080050F833408C4204D100EBC3056D689542FC
:102F180005D044B940F8331000EBC30042600020EC
:102F280030BDFF23EBE76FF00F00F9E7A80300209F
:102F380060B1B0FA80F3C3F11F03DBB20021044A89
:102F480042F8331002EBC30251607047FF23F5E7E4
:102F5800A80300200F2300F00302043292009340DC
:102F680043EA9000C3B2064A023352F82320030C06
:102F780093FAA3F3B3FA83F302EA1040D8407047F8
:102F88000000014038B51E4B0D4618680B881446E2
:102F9800C3F30B03013B1B2B2BD8DFE803F01021F5
:102FA8000E1F212A1910102A2A2A2A2A2A2A2A2AEE
:102FB8002A102A2A2A102A2A2A1749F6404020606D
:102FC8002B68B3F5805F0DD2002038BD4008F6E7C6
:102FD80002F07AFC80B102F077FCF0E70948EEE7EE
:102FE8000020ECE7C3F313330133B0FBF3F02060A8
:102FF800EAE76FF08500E8E76FF00400E5E700BF57
:103008009000002000127A0070B53B4D02F05EFC83
:10301800284602F058FC00F0E1FD384C384A636855
:10302800C3F30313D35C20FA03F613781D41AE42B1
:1030380002D2284600F0F8FD2368990706D42368D1
:1030480043F00103236023689A07FCD5636A43F0C1
:1030580001036362636A9B07FCD5636803F00C0392
:10306800082B15D12368980706D4236843F0010379
:10307800236023689907FCD5636823F00303636022
:10308800636813F00C0FFBD1636823F0F0036360EF
:10309800236823F08073236023689A01FCD400F02E
:1030A80033F8236843F08073236023689B01FCD5C1
:1030B800636823F0F0036360636823F0030343F05D
:1030C80002036360636803F00C03082BFAD1AE4275
:1030D80002D3284600F0A8FD0A4B074A00201A60D0
:1030E800636823F4E06343F480636360636823F4F4
:1030F8006053636070BD00BF0090D00300100240B1
:10310800226A000890000020054A536823F47C13C3
:1031180043F460135360536823F48003536070478B
:10312800001002402DE9F843D0F804909046074675
:10313800D9F808000D461E4602F01FFBB8F5001F1F
:10314800044616D12846D9F80840FFF703FF844201
:103158000CD1294602F011FB0446FFF799FE2046E0
:10316800FFF7E6FE00212046FFF79AFE0020BDE8A3
:10317800F883B8F5800F20D0B6F1806F19D0B6F17A
:10318800C06F18D0B6F1007F1AD102263A46204601
:103198000E49FFF7ADFEB0B92846D9F8081002F07D
:1031A800F1FA20463146FFF77BFE2046FFF75AFE2C
:1031B800DCE70126EAE70326E8E76FF08500D6E7B3
:1031C8006FF01500D3E76FF00F00D0E7175A00082B
:1031D8000C291FB528BF0C210C460A4BD3F8F02741
:1031E80012BA0192D3F8EC2712BA0292D3F8E83750
:1031F8000A461BBA01A9039302F080FE204604B0D8
:1032080010BD00BF00F0FF1F134A536A516AC3F391
:1032180000734901516A4FEA430348BF43F0010371
:103228008900516A48BF43F010034900516A526A45
:1032380048BF43F01003090148BF43F00803002AC0
:10324800064AB8BF43F080035268920748BF43F06C
:1032580080030360002070470010024000700040A7
:10326800064A0020536A43F080735362A2F5D032B5
:10327800136843F008031360704700BF0010024052
:103288002DE9F74F00221346044639488A4227D3CE
:10329800E3B1384A13F0010F906940F001009061E2
:1032A80092694FEA132002F001020192019AC3F3D6
:1032B800440200FA02F0304A09BF5368D369034355
:1032C80043F0E06316BF03435360D3614FF0010935
:1032D80004EBC106A64213D1002003B0BDE8F08F6D
:1032E80054F832501BB9C5F389230132CEE70542A1
:1032F800FBD0C5F389259D42F7D06FF01500ECE7A8
:10330800D4E900B51BF0030A1ED145F04105CBF303
:103318008310FFF741F9804638B3CBF38307534650
:103328002A46394602F052F90028D6DBBAF1030FD3
:1033380008D1D8F8043009FA07F75B68AA054CBF2A
:103348001F615F610834C5E7BAF1020FDFD0BAF137
:10335800010F07D115F4C07F0CBF45F0020545F0F9
:103368000405D4E745F00105D1E76FF01200B4E792
:1033780000FC0F0000100240000001402DE9F04160
:103388000446006902F045FC0121606802F024FC53
:10339800002802DA10F1860F48D1256964680021F7
:1033A800204602F019FC00283EDB2448A168836807
:1033B8001B68002B3FD09847B0BB0126AC68083487
:1033C800D5E9023203EBC203A4F10802934201D803
:1033D800002029E054F8080C02F075FC40B354F8BA
:1033E800080C14F8041C34F8023CD0F810C0DA07B2
:1033F800DCF8007054BF43F4B01383F4D01323F403
:10340800801206FA01FEDB07D0F808804CBF4EEAAE
:10341800070727EA0E07CCF80070D8F8003098475D
:10342800002804F10804CBDA00EAE070BDE8F08176
:103438006FF01200F8E76FF05700F5E780600008BA
:103448002DE9F74F80460F461E469146056912B989
:10345800002B00F0BE80BB889C0400F197804FF0E1
:10346800FF324FF0FF3305F1100000F05FFD6F6091
:10347800D8F810B0D8F804A0DBF80030DAF800402B
:103488009F42BA8840F08E80100509D5236823F43E
:103498004443B9F1000F00F0828043F440432360B5
:1034A800B88802F0F2FA0746B9F1000F40F0268119
:1034B800C5F834900023AB6305F14C023B4605F197
:1034C800380105F1340002F0CAFAA864002E40F071
:1034D8001E81EE6300232B6405F154023B4605F17F
:1034E800400105F13C0002F0BAFA00231A462865AB
:1034F800A86B2B63824240F01181002211462E6C8A
:10350800B14240F0128193422CBF6B646A64D8F8D0
:10351800043027681A6807F44447136843F04003E7
:103528001360D8F81060306848B1037D3BB10121C1
:10353800083002F03DFB3368186902F09FFBEB6C22
:103548001BB96E6D002E00F025812A68DAF800603C
:103558009288D20740F1F080B268920740F1358135
:10356800002B00F032812946304602F0DAFAB368BF
:10357800DB0740F1FE802B6D002B00F0FA806B6DAD
:10358800002B00F0F68029463046E5E0AB69002BB9
:103598007FF465AF6B689F427FF461AF68E743F4DF
:1035A80000437CE7DAF81010C2F34513022926D04D
:1035B800032927D0012910D06FF085062B6813B195
:1035C8009B889A0405D400236B6005F1100000F075
:1035D80079FC304603B0BDE8F08F043B1C2B8CBF50
:1035E80000230123002BE7D01104E5D49E48DAF824
:1035F80008108368DB6853B96FF00406DEE7043B04
:103608000C2BECE7082BEFD0102BD5D1ECE701AA57
:1036180098470028F0DB0023019938681A460133DF
:1036280021FA03FC844540F22381082BF6D16FF080
:103638001506C3E7236843F002032360BB8813F031
:10364800040F236814BF43F0010323F00103236030
:10365800BB8813F4006F236823F4444304D0B9F102
:10366800000F3AD043F440432360BB8813F0100F97
:10367800236814BF43F0800323F08003236023688A
:1036880023F4005323603B7D1BB99AF814305A0782
:1036980026D5236843F400732360636823F004038A
:1036A8006360BB88714A13F0010F236814BF23F4C9
:1036B800827343F482732360B88802F0E6F92368C2
:1036C800013852F8202023F40063134323600123B8
:1036D800CBF800708BF86030E2E643F40043C3E7B0
:1036E800BB8813F0010F236823F40073D4D143F48B
:1036F80080232360636843F00403D1E7D9F80030DE
:103708006B63002B3FF4D6AED9F80430D3E63368A8
:10371800EB63002B3FF4DEAE7368DCE6696B01EB0C
:10372800C201496801320B44E4E6E86B00EBC100D2
:10373800406801310244E3E69AF81430DB0718D4F4
:10374800336803F44449B9F5004F08D1DAF80000AA
:103758008368D907FCD5294602F0A2F909E0B368C5
:103768009807FCD52946304602F0DBF9B9F5404FF9
:10377800ECD1DAF800309A6812F0700F2AD09A6803
:10378800500605D5DA680092009A9B680093009B62
:103798006FF00406D8F80430D8F810901C68236835
:1037A80003F48273B3F5827F45D1A3681B062ED537
:1037B80023685F062BD5236803F44443B3F5004F11
:1037C800F3D1204602F01DFAEFE7736823F0800377
:1037D8007360CCE6B7F5404F7FF4B1AEEA6C92B9AE
:1037E8006A6D82B19A681106FCD41A6822F0400208
:1037F8001A601A6822F4444242F400421A601A68B5
:1038080042F040021A60276807F4444797E6D8F860
:103818001080D8F8003073B11A7D62B1998811F41C
:10382800805708D1186902F029FAD8F800003946FB
:10383800083002F0BDF9A368980606D5A36801937D
:10384800019B236823F040032360D9F800309B884C
:10385800D90402D4204602F0D4F9C9F8306009F13D
:10386800200000F02FFBA9E680600008D86400085B
:103878002368094923F040032360236851F8222074
:1038880023F0380313432360BB889B073FF5D2AE70
:10389800236823F00203D0E6686400084FF0E023B1
:1038A8000D4A9969126818699B69002908BF114671
:1038B800002B08BF134610F4803F084801D19942F5
:1038C80005D20168114401604FF0E02109690068E0
:1038D8001044C01A704700BF2C04002028040020A0
:1038E8001022094B002083F823204FF4C852074BBD
:1038F8001A60074B41F6FF0218604FF0E0235A6147
:10390800072298611A61704700ED00E02C0400203E
:1039180028040020684620F007018D4619B5FFF7F6
:10392800BDFF1449144B0868D3E90042001942F15D
:103938000002C3E9000200230B604FF4C8530F4A8A
:10394800D2E90041001BB0FBF3F043431B1941F1DE
:103958000001C2E90031EFF31181102383F31288CB
:10396800BFF36F8F00F0ECFEFFF780F9BDE8194058
:103978008546704728040020F8000020F000002049
:103988002DE9F041384E91B1421C0AD14FF0E022A6
:10399800136923F0010313614FF07F433360BDE8DF
:1039A800F0813468012807DC4FF000080BE0431C65
:1039B8003468F7D140F63C2040F63D239842A8BF32
:1039C800184600F1FF38EFF31185102383F31288AE
:1039D800BFF36F8FFFF762FF4FF0E023234FD3F859
:1039E80018C0D7E9002380184FF0000243F1000304
:1039F800C7E900031E4B1A601E4B1A68831A2DD4A0
:103A08004FF4C85E0EFB083303F5C7531F33B3FBEF
:103A1800FEF1131A0EFB0133B3F5806F38BF4FF474
:103A28008063154A934228BF13464FF0E022336063
:103A3800013B90695361002384459361ACEB00011D
:103A4800D7E900320DD20C44E31842F10002C7E96D
:103A5800003285F31188BFF36F8FA0E74FF48063BE
:103A6800E3E7CB18F1E700BF2C040020F8000020A2
:103A780028040020F000002000DCFF0038B5EFF338
:103A88001185102383F31288BFF36F8F084B1C68CE
:103A9800084B1B68E41AFFF701FF85F31188BFF391
:103AA8006F8F4FF4C8532044B0FBF3F038BD00BF0C
:103AB800F8000020F000002038B5EFF3118510233E
:103AC80083F31288BFF36F8F044B1C68FFF7E6FE81
:103AD80085F31188BFF36F8F204438BDF8000020AC
:103AE8004FF47A7370B54D6806695D438B6843BBC4
:103AF80074684CBB49F640400023A5FB0001154AF9
:103B0800FCF738FE04231946B0FBF3F3B3F5805FE6
:103B180004F101020FD2104A643D9542E4B203F168
:103B2800FF3314D8062C12D8B3F5805F0FD20020CB
:103B3800C6E9004370BDD3B201FA03F314469BB241
:103B4800E2E76FF08500F5E76FF00B00F2E76FF042
:103B58001500EFE740420F009CFF8F0138B544681D
:103B68000269880741BF1C48436843F48073436077
:103B7800CB072DD44CF6CC412368196045F255513A
:103B8800236819601368216803F007034B605368C2
:103B98002168C3F30B038B6002F0ADF90A220023FE
:103BA800FCF7E8FD05462268D06810F0030003D151
:103BB8004AF6AA23136038BD02F09DF900230A22B1
:103BC800FCF7D8FD431B262BEDD96FF01200F2E766
:103BD8006FF08500EFE700BF002004E00D4A53684E
:103BE80003F00C01082912D10B48C3F38341DB030E
:103BF800405C09D55368094AC3F340435043084A17
:103C0800D35CB0FBF3F07047064B5843704703484A
:103C1800704700BF00100240346A000800127A00A2
:103C2800326A000800093D00D8B1104B984216D8F6
:103C38000F4B984294BF002001200E4A136823F0CE
:103C4800070303431360136803F0070398420AD07D
:103C5800136803F00703181A18BF012070470220E1
:103C6800EBE7012070470020704700BF006CDC02C2
:103C780000366E010020024038B5EFF3118510239D
:103C880083F31288BFF36F8F064B9C6802F02EF8FF
:103C980085F31188BFF36F8F2046BDE83840FEF7E3
:103CA800F5BF00BF3C04002038B50A4B53F820404C
:103CB800013053F82050A54200D838BD606830B1B3
:103CC800037EDB0701D401F0E6FF0834F3E723683D
:103CD8009847FAE7E4640008012270B5294B86B0DA
:103CE80003201A70FFF7E0FF02F007F90420FFF73E
:103CF800DBFF254C254D2646AE4204F130040FD398
:103D080000F078FA204CAC4226D300F087FAFDF791
:103D180021FE1F4A938923F00103938106B070BDE9
:103D280054F80C3C059354F8103C049354F8143C94
:103D3800039354F8183C029354F81C3C019354F82C
:103D4800203C009354E90A2354E90C0100F014F9CB
:103D580054F8303C5E65CEE7D4E90A23B3F1FF3F5F
:103D680008BFB2F1FF3F05D052EA0301206803D132
:103D780002F051F83034C6E70649183000F050FC1C
:103D8800F8E700BF78050020C4620008C462000894
:103D980070010020C75D0008702370B5134E012222
:103DA80003FB0066002386B0CDE904230F220193AC
:103DB800CDE9023214230E4D0E4903FB005504468B
:103DC80001EB00214FF4807230460B4B009500F058
:103DD800D3F8337C2C7423F004033374074B013479
:103DE80003EBC423EE606B6006B070BD00010020D9
:103DF8003C040020800D0020FB5C000880050020AA
:103E08007FB50020FFF750FF264B83F30888264C28
:103E18000025636943F400736361F02384F822305A
:103E2800E57725766576A57684F82050636A43F4AD
:103E3800E0236362FEF71CFEFEF712FF4FF0FF332C
:103E48001A48A362E36200F0CFF8FEF7B7FB01203F
:103E5800FFF72AFF0220164CFFF726FF00F008FAAA
:103E6800144B4FF480525C61134B144905930123A2
:103E78002046CDE90353CDE90155114B009500F0DB
:103E88007BF80646237C204623F00403237401F0C4
:103E980073FF2846FFF780FF31462046084AFEF7A1
:103EA800C3FE00BF800D002000ED00E0E00100200F
:103EB800700100203C040020006A0008800E0020E9
:103EC800E13C000870B5EFF31186102383F31288E4
:103ED800BFF36F8F0468A0421AD0CCB1D4E9003286
:103EE800002513605A60237CC4E9005523F00203BF
:103EF8002374A56004F1180001F0C4FF2046E566AC
:103F080001F03AFF3146BDE87040074801F067BF4D
:103F1800D0E902329A4218BF0133836086F31188D0
:103F2800BFF36F8F70BD00BF7905002013B5EFF3A5
:103F38001181102484F31288BFF36F8F846844B111
:103F4800013C846081F31188BFF36F8F002002B0B9
:103F580010BD52EA030406D181F31188BFF36F8FB5
:103F68006FF00F00F3E7CDE900230246014800F0A7
:103F78001FF9ECE7790500202DE9FF41984600F18B
:103F88005803C0E916330E9B002683810423D51DF0
:103F9800037425F007050D9B0D440F4683732946CE
:103FA800C0E906668660C6730446FEF781FB0C9B73
:103FB800073002930B9B20F0070001930A9B2D1AF0
:103FC80000932A46434639462046FEF711FE054B24
:103FD80066659B6803B11B6E2846236604B0BDE87E
:103FE800F08100BF3C040020012303748381002377
:103FF8000366014B986070473C0400206FF00A018B
:10400800084A9368D966084998664B6843F0805314
:104018004B60002383F31188BFF36F8F9368D86ECA
:10402800704700BF3C04002000ED00E070B590F937
:104038001020037C002A2FDBD9062DD11A4C63F0FF
:104048007F032246037452F8183FE169934207D16F
:10405800C0E900210860E0610FE09942F8D01B68D0
:10406800002BF5D093F90E6090F90E50AE42F4DDB6
:104078005968C0E9003108605860A569954200D0C8
:1040880005B9E568A3681A7CD20606D1DA897F2AC1
:1040980003D9AA690AB9636170BDAB4202D0284648
:1040A80000F040FA6561F7E73C04002038B590F964
:1040B80010200146002A037C04DA03F07F0303740E
:1040C80001F022FE0D4D2A4652F8184FAB68944273
:1040D80000D004B9EC688B4207D01A7CD20604D110
:1040E800DA897F2A01D9A2692AB1A34202D02046DF
:1040F80000F018FA23466B6138BD00BF3C0400206D
:10410800B3F1FF3F08BFB2F1FF3F03D002491830B7
:1041180000F086BA704700BFC75D0008034648B97B
:10412800EFF3058232B9064A51699268914201D08B
:10413800FFF764BF83F31188BFF36F8F704700BF29
:104148003C04002038B5184CA168E0690B6881422E
:1041580014BF1A46002249680B605960A368E169D8
:104168002AB9124AC3E900210B60E3610AE092F917
:104178000E5093F90E00854212DD5168C3E9002103
:104188000B605360A569094B9D4200D005B9E568ED
:10419800A3689D4202D0284600F0C4F9656138BD85
:1041A8008A42DED01268DBE73C0400205404002079
:1041B800F8B5DDE906670D4B0C46986811460C4AC0
:1041C8001060EFF31182102282F31288BFF36F8F11
:1041D8009D68284601F0AAFD284632463B46FFF76F
:1041E8008FFF2046BDE8F840FFF708BF3C040020D9
:1041F8005C040020EFF31181102383F31288BFF3CE
:104208006F8F054B9A68D37B013BD37381F3118879
:10421800BFF36F8F704700BF3C04002070B5EFF309
:104228001186102383F31288BFF36F8F0F4DAB688D
:10423800DA7B0132DA732A4652F8184F944200D0DA
:1042480004B9EC681A7CD20604D1DA897F2A01D92C
:10425800A2692AB19C4202D0204600F063F92346A5
:104268006B613046BDE87040FFF758BF3C04002042
:10427800024B03F11802C3E9062270473C040020F0
:1042880070B5EFF31186102383F31288BFF36F8F95
:104298001A4CA168E0690B68814214BF1A460022D3
:1042A80049680B605960A368E1692AB9144AC3E9EF
:1042B80000210B60E3610AE092F90E5093F90E00B9
:1042C800854216DD5168C3E900210B605360A5697A
:1042D8000B4B9D4200D005B9E568A3689D4202D00A
:1042E800284600F01FF965613046BDE87040FFF7C9
:1042F80085BE8A42DAD01268D7E700BF3C040020A6
:1043080054040020F8B550EA010306460C4603D1D0
:10431800FFF7B6FF0020F8BDEFF31187102383F3F2
:104328001288BFF36F8F124D124BA8681860FFF701
:10433800BDFEA868234632460F49183000F070F9D0
:10434800AA680446137C384643F004031374FFF745
:1043580055FEAB68D3E90A23B3F1004F08BF002A22
:10436800D8D101F0C4FD201A20EAE070D3E700BFDD
:104378003C0400205C040020C75D0008014B9868DD
:10438800704700BF3C0400202DE9F84304468789A4
:10439800EFF31186102383F31288BFF36F8F037C2A
:1043A800190705D586F31188BFF36F8FBDE8F88329
:1043B800D90943F008026FD10274A36813B12046EB
:1043C80001F0AAFC04F1180001F05CFDA56D04F1F0
:1043D8005808A84511D04FF0000975B1284601F0DA
:1043E8009BFC05F1180001F04DFD2846C5F86C90BE
:1043F800FFF71CFEA56DA845EFD1DFF8BC80D8F803
:1044080008309C4250D1EFF30589B9F1000918BF73
:104418004FF00109D8F81850284A954200D00DB934
:10442800D8F80C50AB4202D0284600F07BF8204662
:10443800C8F8145001F03DF9B9F1000F02D0204836
:10444800FFF7D2FDD8F808309C4230D1EFF305834E
:104458006BBBA289D20711D586F31188BFF36F8F82
:1044680083F31188BFF36F8F0423184602DFEFF33D
:104478001186102383F31288BFF36F8F3046FFF73E
:10448800BDFDFB0792D5002383F31188BFF36F8F1F
:104498000423184602DF89E703F07F0343F008038B
:1044A800037401F031FC88E74FF00009B2E786F3A6
:1044B8001188BFF36F8FE4E73C0400205404002008
:1044C800E0010020027C034612F01F0210D10A49C5
:1044D80088420DD00949086868B1D9897F2909D867
:1044E80093F90E20064B1B689A42B8BF002070470C
:1044F80000207047104670470001002094000020FB
:10450800600400200122044BC01A044BC010584319
:10451800034B1A54704700BF50020020ABAAAAAA46
:104528007905002070B50C4B0C4D1E7CFFF7CAFFB7
:10453800182303FB06550446284601F0A3FC002275
:10454800074B9A553CB1621E2846BDE870400549A4
:10455800D31700F065B870BD3C040020500200205D
:10456800790500200D45000838B5EFF311851023B3
:1045780083F31288BFF36F8F0F4B104A9C68106843
:10458800A04206D1FFF7CEFF85F31188BFF36F8FE6
:1045980038BD00211B7C1160094AD35C002BF3D085
:1045A8002046FFF78FFF0028EED0237CDB0601D1E1
:1045B800FFF7C8FD2046E5E73C0400205C04002026
:1045C80079050020024B1868984208BF0020704700
:1045D80098000020034B1B680BB9FFF74FBA002067
:1045E800704700BF6404002030B570B10B4B5B68A6
:1045F80098420AD0036843B1D3E90421D0E90445BD
:10460800121941EB0501C3E90421D0E90032136016
:104618005A600023C0E9003330BD00BF9800002075
:10462800B3F1FF3F08BFB2F1FF3F2DE9F84F044651
:10463800994615461F467AD08160EFF311881023FA
:1046480083F31288BFF36F8FB9F1000FDFF8E4A08E
:1046580020DBFFF7BFFFDAE90027013549F1000940
:104668002D1849EBE07306464FF00109C4E90453DD
:10467800AD1843EB0707FFF7A5FF0346DFF8B8E0DF
:10468800DEF804A0EBB9C4E900EACAF80040CEF8A5
:10469800044028E06FF00103DAE900125B1A4FF0DA
:1046A800FF3161EB02025B1B62EB0902012B72F125
:1046B8000001BCBF012300224FF00009C0E9043209
:1046C800D9E7D3E9041CD4E904208A4270EB0C0B27
:1046D80024DA891A5A686CEB0000C3E90410C4E9AB
:1046E800003214605C60FFF76DFF84420ED1134BFB
:1046F8001B685BB9B9F1000F02D1FFF76BFF0646E3
:10470800304601F0A8FB0021FFF73AF988F3118839
:10471800BFF36F8F28463946BDE8F88F521A60EB11
:104728000C005345C4E90420ADD01B68AAE7002556
:104738002F46EFE76802002098000020640400205C
:104748002DE9F047DFF8A8900246C9F800000D46A9
:10475800FFF738FF00260027DFF898804FEAE27E4F
:10476800D8E9001350B1D0E9044CA2427EEB0C0A00
:104778001ADAA41A6CEB0E06C0E904460024521893
:1047880043EB0E032046C8E90023C9F8004001F0B6
:1047980062FB2146FFF7F4F885F31188BFF36F8FAA
:1047A800BDE8F047FFF7E0BE611843EBE473C0E9EA
:1047B8000467C8E90013FFF717FF01224FF0004311
:1047C800C0E9042385F31188BFF36F8F8368984786
:1047D800EFF31185102383F31288BFF36F8FD9F895
:1047E8000020121BC9F80020FFF7ECFEB6E700BF57
:1047F800640400206802002010B5EFF31184102330
:1048080083F31288BFF36F8FFFF7E4FE0346054A70
:10481800D2E90001181841EBE37184F31188BFF362
:104828006F8F10BD680200202DE9F04F43688BB0F0
:104838000093837880469C07924640F1F9800025D2
:104848000878002800F0F68025280AD04B1C019330
:1048580041460135009B98470028C0F2E380019942
:10486800EEE74E788B1C252E0193F1D000270A2203
:10487800B9463C461F2C22D8A6F12003102B20D87D
:10488800DFE803F0141F1F1A1F1F1F0B1F1F1F1223
:104898001F171F1F090044F00104019B13F8016B47
:1048A8000193002EE6D13AE044F0020444F00404F7
:1048B800F3E744F00804F0E744F01004EDE77F2C38
:1048C80024D8A6F13003092B08D860064EBF02FB96
:1048D800073702FB093944F02004DEE72A2E0DD100
:1048E80061065AF8043B53D4002BA7BF994644F0FD
:1048F8002004C3F1000944F02804CEE72E2E05D188
:10490800630600F1978044F04004C6E76C2E2ED071
:1049180028D8682E32D06A2E37D04C2E35D0002FAA
:1049280046F02003B8BF24F04004A3F16502BCBFE1
:104938000027A4B2022A01D9612B2BD107270AF13B
:10494800070A2AF0070A9C4E0AF1080A210760D5CF
:10495800344606EB070B5C455DD1AE1BA219A9EBEB
:10496800070959E1742E98D07A2E96D0D7E72606F3
:1049780048BF44F4007444F080048EE7E00548BF63
:1049880044F4007444F4807487E744F4207484E7A2
:104998001F4682E7A6F16302122A00F2D880DFE8F8
:1049A80012F013004D00D600D600D600D6004D00F8
:1049B800D600D600D600D600D600E800D100D60032
:1049C800D6001A00D600A0005AF8043B01278DF83B
:1049D800103004AEBAE75AF8046B784B002E08BFC3
:1049E8001E4614F0400F14BF39464FF0FF313046D1
:1049F80001F09AFA0746A9E741462020009B98470C
:104A080000280FDB013CA742F6D34D442D1BA146DD
:104A18009EE74C46F7E7414614F8010B009B984780
:104A2800002898DA98F8023043F0040388F8023036
:104A38004FF0FF3528460BB0BDE8F08F220630D581
:104A4800A3052AD50AF1070A2AF007039A465968E6
:104A58005AF8080B24F0100B00291FFA8BFB2FDAE9
:104A6800404261EB41014BF4806B0A2304AC2246BF
:104A780001F066FA1BF0400FA0EB040200F08E80F4
:104A88002BF001049742A4B240F38F80002E40F02F
:104A98008E802BF01104A4B21DE05AF8040BC11744
:104AA800D8E7E0055AF8041B01D40846F7E7A20541
:104AB8004BBF48B208B241F3C01141F3C031C9E756
:104AC80050EA0103D1D16306CFD5002FCDD13A46A4
:104AD80024F01104A4B23B4640F206410C4262D1D4
:104AE80024E00A2324F01004A4B214F0800243D076
:104AF80014F400711FBF0AF1070A2AF00702924650
:104B0800516814BF5AF8080B5AF8040B50EA01020E
:104B18003ED124F0160B62061FFA8BFB3CD5002F02
:104B28003AD13A463B4624F01704A4B221075AD496
:104B3800E10705D5994572DDA9EB03039F184B469C
:104B48009B464AE01023782644F01004CDE7782BE2
:104B580004D1C6F1780343F01003C6E74146252087
:104B6800009B98470028FFF65DAF41463046023566
:104B780070E608230026B8E714F480715AF8040B8D
:104B8800C4D014F400711ABF1146C0B280B2BDE798
:104B980024F006041FFA84FB04AC68E713465C465D
:104BA800E10699D52EB90133C0E71346F8E73B462D
:104BB800F6E70233BAE700BF0C6A0008056A000886
:104BC800CDE9023241462020009B98470028FFF695
:104BD80029AFDDE902320BF1010BD945F0DCEB1A04
:104BE80003EB0B055B46E10627D5CDE902324146CA
:104BF8003020009B98470028FFF614AFDDE9023209
:104C08007EB901352F44791B8A4228DB144604AE4D
:104C180094BB2A44A9EB03091546914441E0174681
:104C28008EE741463046CDE902320235009B98476F
:104C3800DDE902320028E5DAF4E640F206410C42EA
:104C4800E0D014F0020F14BF2B20202014F4806F42
:104C5800414618BF2D20CDE902320135E6E7CDE9FE
:104C680002324146009B30209847DDE90232002895
:104C780005F10105C7DAD5E6013CCDE90232414626
:104C8800009B305D9847DDE902320028C0DAC9E6AA
:104C980041462020009B9847002805F10105FFF6B2
:104CA800C1AEA9EB0503002BF2DCD8E530F00042D9
:104CB8000146034670B504D1BDE87040012000F0FC
:104CC80045B8002803DABDE8704000F047B8B0F1F5
:104CD800FF4F02DBFBF75AFA70BDB0F5000F2DDA73
:104CE8004FF09841FBF75AFB6FF018020346D815AE
:104CF8007F381044C60F00EBD070C3F31604FBF7DF
:104D0800F9FA0546C6F17F0044EAC050FBF7ACFE4D
:104D18000B4906462846FBF741FB0A49044630463C
:104D2800FBF73CFB01462046FBF730FA06490446F0
:104D38002846FBF733FB01462046CBE70022D6E79F
:104D4800DB275435D95BDE3E80209A3E08B1024805
:104D580070474FF0FF407047000080FF08B501F032
:104D680046F9014808BD00BF0000C07F7047012315
:104D780003FA01F103691B68194218BF82F00102A6
:104D880012B18368DB68184783681B69FBE70A214F
:104D980020EAE070A0FB010101F024B8FFF7F7BF9B
:104DA80000F06CBF08B501F0A6F80A220023FBF753
:104DB800E1FC08BD08B5FDF7EBFF08BD0020704712
:104DC80070477047002307B5019301A8FEF71CFA46
:104DD80018B1802003B05DF804FBFEF741FA019B8F
:104DE80003F00100990748BF40F002005A0748BF86
:104DF80040F00400190748BF40F00800DA0648BF31
:104E080040F01000990648BF40F02000DA0502D5AE
:104E180040F04000DEE7002BDCD00028DAD1D8E7EC
:104E280013B50024CDE9004408216846FEF7D0F9FF
:104E3800032813DD00F108030DEB030010F80B4CF9
:104E480010F80C3C240444EA036410F8093C1C43A1
:104E580010F80A3C44EA032002B010BD2046FBE7E4
:104E6800012008B5FDF760FB1FB50B468DF80C0057
:104E780000920121002203A8FCF7C6F805B05DF8EE
:104E880004FB07B504220DEB0201FFF7EDFF0198C3
:104E980003B05DF804FB1FB560F07F008DF80C00CF
:104EA800009200230A4603A80121FCF7ADF805B0DB
:104EB8005DF804FB07B501228DF807000DF1070125
:104EC8000D20FFF7E8FF03B05DF804FB1FB560F0A5
:104ED8003F007F298DF80C00C8B281BF60F07F00C9
:104EE800C9098DF80D008DF80E1098BF8DF80D00CA
:104EF80000938CBF03210221002303A8FCF784F848
:104F080005B05DF804FB07B501238DF807200DF106
:104F18000702FFF7DBFF03B05DF804FB1FB50023B2
:104F28007F29039382BF86238DF80930102340F030
:104F380040008DF808008CBF8DF80A308DF80910F4
:104F4800009202A88CBF03210221002203ABFCF7C8
:104F58005BF8039805B05DF804FB13B50024022341
:104F68008DF8040001AA04212D208DF80540FFF7D3
:104F7800ADFF032206212D20FFF7C5FF224606219B
:104F88002D20FFF7C0FF04220A212D20FFF7C6FFBE
:104F980002B010BD0020FFF774BF07B50422ADF8BA
:104FA8000410ADF806000DEB02010320FFF773FFB4
:104FB80003B05DF804FB0A4601460920FFF76BBF02
:104FC800152307B5ADF80230002340F4AE10ADF854
:104FD80000000522694608208DF80430FFF75BFFC2
:104FE80003B05DF804FB0220FFF764BF0146052209
:104FF8000A20FFF750BF4FF4807307B502220D2037
:1050080001A9ADF80430FFF746FF03B05DF804FBD3
:10501800042273B505460E4610200DEB0201FFF77A
:1050280023FF9DF8044004F07F0455B1B44208D82A
:1050380024B1224629461120FFF716FF204602B068
:1050480070BD0024FAE7014605221520FFF70CBFC2
:10505800014605221720FFF707BF10B5044686B0A2
:1050680004A904221020FFF7FFFE049B04A91B0DCE
:10507800238008221220FFF7F7FEBDF81030002227
:105088002381BDF812300221A380BDF8143003A893
:10509800E380BDF81630638140F25553ADF80C300B
:1050A8000423009304ABFBF7AFFFBDF81030A381D6
:1050B800BDF81230638006B010BD08B54020FFF778
:1050C800F9FEBDE808400A20FFF76ABE08B5E022ED
:1050D80003213620FFF717FFBDE80840F02203211F
:1050E8003620FFF710BF07B5052269460F20FFF7E6
:1050F800BBFE00989DF8041003B05DF804FB00287F
:1051080014BF8620062008B5FFF7D4FEFFF7EBFF93
:1051180000F0006001F00401084314BF4FF0FF30B5
:10512800002008BD1FB5029002A88DF80C10FFF7EB
:105138005DFF4FF4407302220D2001A9ADF8043041
:10514800FFF7A9FEFFF7CFFF020100F000630AD5C1
:10515800FFF7B3FFFCF706FAFFF74DFF4FF0FF30FC
:1051680005B05DF804FB1846FAE7FBF7F7BE704791
:10517800FBF712BF0B0A017043700B0C090E83700A
:10518800C1707047D8B1CBB10C39342916D8017821
:10519800412913D14178882910D1B0F803109142E0
:1051A8000CD1827859801A70B0F805209A80B0F82E
:1051B8000720DA80427A01201A727047002070476F
:1051C80070B50446412563711B0A2570A3718825B3
:1051D8001023BDF81000E270E071120A059E000A63
:1051E8006570A1702271207263723278012A06D824
:1051F80004F10A007168FFF7BDFF0E2070BD022A96
:10520800F368757A04F10C002CD04BB3242D28BF19
:1052180000250323A3727378E3727168FFF7AAFF6E
:10522800337A04F112002374337C63747169FFF7D5
:10523800A1FFB6F91830A375C3F30723E375B6F9D0
:105248001A30A5762376C3F3072363761DB32A465F
:10525800F16804F11B0000F051FE1B35E8B2CDE700
:105268001D46D6E7ABB12D2D28BF00250223A3721A
:105278007378E3727168FFF77DFF337A657423747E
:105288005DB12A46F16804F1120000F037FE1235CC
:10529800E4E71D46EAE71B20B0E71220AEE770B549
:1052A8000446412663711B0A2670A37188262223AF
:1052B800BDF81000E270E071059D120A000A6670E0
:1052C800A1702271207263722B78012B06D804F129
:1052D8000A006968FFF74EFF0E2070BD0223A37213
:1052E8006B7804F10C00E3726968FFF743FFB5F9C6
:1052F800083014202374C3F307236374B5F90A3004
:10530800A374C3F30723E374E7E7034600200C29DB
:10531800D0709080D0801081907206D101211170D8
:105328009B7890705370012070470F2908D1997AA3
:1053380002291AD11170D97A51701B7B9370F2E748
:10534800172912D1997A03290FD11170D97A51707E
:10535800197B9170597BD170D9899180198AD18034
:10536800598A11811B7D9372DDE770470C2905D19D
:105378000123137000230120537070470E2906D1B2
:10538800837A991E012902D81370C37AF3E70020A3
:10539800704701398BB2072B0DD801238B4003428C
:1053A800DAB208D0531E0340002003B970475A1ED2
:1053B80001301340F9E74FF0FF3070470A21A0FB96
:1053C800010100F00FBD034600681979704710B558
:1053D800FBF76EFE90B9FBF757FF044688B9062124
:1053E8004DF6CA60FFF7D9FDFBF750FE60B1FCF738
:1053F800CBF860B9FCF7A4F8204610BD4FF0FF3495
:10540800FAE76FF00104F7E76FF00204F4E76FF0D2
:105418000304F1E708B5FCF793F8BDE80840FFF787
:10542800EABD08B5FFF749FEFCF78AF8FFF7E3FD88
:10543800BDE808400020FCF79BBB08B5FCF780F8E6
:10544800FFF7D9FDBDE808400020FCF791BB00EB51
:10545800C100408840087047F8B50346FFF7F7FFDA
:10546800B0FA80F0C0F11F0003EB800CDCF810608C
:10547800CA00171D0C4606328DB256B9012101FA31
:1054880000F0D9680143D960CCF81040DD539D5233
:10549800F8BDF1000431585AD85303EBC0009E52AE
:1054A800C5805D52F4E7043A2DE9F843CC1D114458
:1054B80024F0070421F00706A6EB04084FEAD807F2
:1054C800B7FA87F24FF00009C2F12405AD0007359D
:1054D800C2F12002ED0804604946A760C4F80C90A8
:1054E800920004F1100000F017FDAAB2530043F037
:1054F800010363807B1B9BB204EBC5015800A4F831
:105508000090488024F83520A6F8029024F8083046
:1055180004EBC7035A88294642F001025A80204604
:10552800BDE8F843FFF798BF002070470FB407B5F0
:1055380004A951F8040B0191FCF7C4FF03B05DF80E
:1055480004EB04B07047704791FAA1F3B3FA83F300
:1055580070B50D0E0F2691FAA1F1B1FA81F14459F7
:105568009B0006FA03F3890024EA03048A402243D5
:10557800425170BD91FAA1F3B3FA83F370B50D0EE1
:10558800042691FAA1F1B1FA81F144599B0006FA77
:1055980003F3890024EA03048A402243425170BD80
:1055A80091FAA1F3B3FA83F370B50D0E032691FABD
:1055B800A1F1B1FA81F144599B0006FA03F389007D
:1055C80024EA03048A402243425170BD70B5012485
:1055D80015460729436804FA01F284BF01F0070160
:1055E8008C4058684FEA02238ABF1C4342EA0304EE
:1055F80044F08064EA0722D415F0060204D121465B
:10560800FFF7A2FF002070BD022A01D10422F6E7AD
:1056180005F4C075802D6FEA14264FEA14220BD1C9
:1056280092FAA2F20123B2FA82F2C16893403140A1
:105638000B430822C360E2E7C3683340F9E76B060F
:1056480054BF012209222146FFF77EFF15F02002F0
:1056580018BF0422214605F01805FFF78BFF082D17
:1056680004D102222146FFF79BFFCBE70DB90122A7
:10567800F8E70322F6E700F04FBC00F03FBC014614
:105688000068FCF7E1BF08B5FDF70EF8BDE8084073
:10569800FDF7ECBA00210120FCF7D6BF08B5FDF7ED
:1056A80097FAFCF7A9FFFCF7B3FFFDF72FFBFEF70E
:1056B800A7FB6FF08500704761B662B680F311886A
:1056C800BFF36F8F704772B6002383F31188BFF35F
:1056D8006F8FBFF34F8F30BF62B6BFF36F8F7047C6
:1056E800402070470020704708B50622012100209D
:1056F800FDF786FB002206201146FDF753FA01212B
:1057080007220846FDF77CFB002207201146FDF71B
:1057180049FA082201210220FDF772FB0022082025
:105728001146FDF73FFA092201210320FDF768FB26
:10573800002209201146FDF735FA0A22012104202A
:10574800FDF75EFB00220A201146FDF72BFA052122
:1057580017220846FDF754FB002217201146FDF7D3
:1057680021FA282206210A20FDF74AFB00222820D8
:105778001146FDF717FA002008BD012001F01F01AE
:10578800884070470F2300F00302043292009340D0
:1057980043EA9000020C92FAA2F2B2FA82F210B531
:1057A800C3B29B0003F1804303F580339C689140AA
:1057B80024EA10400143996010BD0B8882B0C3F3FE
:1057C8000B0303F6EC72C2F30B02082A14D803F198
:1057D800804303F504331A684868024300201A60BE
:1057E8000B88C3F30B0303F1804303F504331B68F1
:1057F8000193019B02B070476FF08500FAE70B88B0
:10580800C3F30B0303F6EC72C2F30B02082A9FBF23
:1058180003F1804303F504331A6849689BBF0020ED
:105828008A436FF085001A607047092809D840F24A
:10583800DA33C34013F0010F0CBF6FF0850000206E
:1058480070476FF08500704770B508884A68C0F3E4
:105858000B0094B2C2F30445FFF7E7FFA0B9FF2A93
:1058680011D00123C2F3415604F18041013601F5FC
:105878000431B3400C68013BAB40120E24EA030329
:10588800AA4013430B6070BD6FF08500FBE70888E2
:1058980008B5C0F30B0000F6EC73C3F30B03082B39
:1058A8000AD800F1804000F5043002684B68934341
:1058B8000CBF0220012008BDFFF7B7FF00280CBF6E
:1058C80002200120F7E770470020704770474368BF
:1058D80000205B689B680B60704743685B68D8680A
:1058E80042400A404240DA60002070474368002086
:1058F8005B6819617047436800205B6859617047AD
:10590800436800205B68DA685140D960704730B559
:105918000369986800B30024884219D108688CB9D3
:10592800DC689860A14200D1D860002008602AB1E4
:105938009A680A60DA68996002B9D96000200FE0B5
:105948002846E9E72060D868814208BFDC60ECE7B8
:1059580005680446002DF3D1002AE9D16FF015003F
:1059680030BD12F4003CF8B50C46134636D091070A
:105978002DD55A0748D52122DF062AD542F08402C0
:1059880013F44036056912D06F6827FA04F1C90785
:105998005FBF0121A14039436960BCF1000F06D007
:1059A8001F0329D501234168A34049680B610023DF
:1059B8002146FFF70BFE46B96B6823FA04F2D207BB
:1059C80041BF0122A24093436B600020F8BD012231
:1059D800D2E79E06D4D542F48272D1E712F480321F
:1059E800CED0DD0606D413F0200F0CBF02224FF4F0
:1059F8008272C5E78422C3E75903D8D501234168D9
:105A0800A34049684B61D2E76FF08500DEE770B5C7
:105A18000B690E469968054609B10C6801B970BD55
:105A28008A682A4002D030464B6898471CB12368E0
:105A380021461C46F2E72346FAE730B503681360AF
:105A48000579046804EBC504A34202D36FF0010092
:105A580030BD5C7908338C42F1D10020F8E730B5CD
:105A68000446086808B9106008E0206845689D4247
:105A780005D3B5FBF3F515602368186830BD083009
:105A88002060086801380860EBE7C0F34510082873
:105A980004D910288CBF04200220704701207047C9
:105AA80038B50B6805469888FFF7EFFF02280346CC
:105AB800D1E914200C4608D0012B24D191F86010AC
:105AC800012920D9E16D01291DD9E9680AB100B180
